{
  "contractName": "PositionManager",
  "abi": [
    {
      "inputs": [],
      "stateMutability": "nonpayable",
      "type": "constructor"
    },
    {
      "anonymous": false,
      "inputs": [
        {
          "indexed": false,
          "internalType": "address",
          "name": "token0",
          "type": "address"
        },
        {
          "indexed": false,
          "internalType": "address",
          "name": "token1",
          "type": "address"
        },
        {
          "indexed": false,
          "internalType": "bool",
          "name": "side",
          "type": "bool"
        },
        {
          "indexed": false,
          "internalType": "uint160",
          "name": "sqrtPriceX96",
          "type": "uint160"
        },
        {
          "indexed": false,
          "internalType": "uint256",
          "name": "quantity",
          "type": "uint256"
        },
        {
          "indexed": false,
          "internalType": "int24",
          "name": "tickLower",
          "type": "int24"
        },
        {
          "indexed": false,
          "internalType": "int24",
          "name": "tickUpper",
          "type": "int24"
        },
        {
          "indexed": false,
          "internalType": "uint256",
          "name": "amount0",
          "type": "uint256"
        },
        {
          "indexed": false,
          "internalType": "uint256",
          "name": "amount1",
          "type": "uint256"
        }
      ],
      "name": "orderCreated",
      "type": "event"
    },
    {
      "inputs": [],
      "name": "WETH9",
      "outputs": [
        {
          "internalType": "address",
          "name": "",
          "type": "address"
        }
      ],
      "stateMutability": "view",
      "type": "function",
      "constant": true
    },
    {
      "inputs": [
        {
          "internalType": "uint256",
          "name": "",
          "type": "uint256"
        }
      ],
      "name": "deposits",
      "outputs": [
        {
          "internalType": "address",
          "name": "owner",
          "type": "address"
        },
        {
          "internalType": "uint128",
          "name": "liquidity",
          "type": "uint128"
        },
        {
          "internalType": "address",
          "name": "token0",
          "type": "address"
        },
        {
          "internalType": "address",
          "name": "token1",
          "type": "address"
        }
      ],
      "stateMutability": "view",
      "type": "function",
      "constant": true
    },
    {
      "inputs": [],
      "name": "factory",
      "outputs": [
        {
          "internalType": "address",
          "name": "",
          "type": "address"
        }
      ],
      "stateMutability": "view",
      "type": "function",
      "constant": true
    },
    {
      "inputs": [],
      "name": "nonfungiblePositionManager",
      "outputs": [
        {
          "internalType": "contract INonfungiblePositionManager",
          "name": "",
          "type": "address"
        }
      ],
      "stateMutability": "view",
      "type": "function",
      "constant": true
    },
    {
      "inputs": [],
      "name": "refundETH",
      "outputs": [],
      "stateMutability": "payable",
      "type": "function",
      "payable": true
    },
    {
      "inputs": [
        {
          "internalType": "address",
          "name": "token",
          "type": "address"
        },
        {
          "internalType": "uint256",
          "name": "amountMinimum",
          "type": "uint256"
        },
        {
          "internalType": "address",
          "name": "recipient",
          "type": "address"
        }
      ],
      "name": "sweepToken",
      "outputs": [],
      "stateMutability": "payable",
      "type": "function",
      "payable": true
    },
    {
      "inputs": [
        {
          "internalType": "uint256",
          "name": "amount0Owed",
          "type": "uint256"
        },
        {
          "internalType": "uint256",
          "name": "amount1Owed",
          "type": "uint256"
        },
        {
          "internalType": "bytes",
          "name": "data",
          "type": "bytes"
        }
      ],
      "name": "uniswapV3MintCallback",
      "outputs": [],
      "stateMutability": "nonpayable",
      "type": "function"
    },
    {
      "inputs": [
        {
          "internalType": "uint256",
          "name": "amountMinimum",
          "type": "uint256"
        },
        {
          "internalType": "address",
          "name": "recipient",
          "type": "address"
        }
      ],
      "name": "unwrapWETH9",
      "outputs": [],
      "stateMutability": "payable",
      "type": "function",
      "payable": true
    },
    {
      "stateMutability": "payable",
      "type": "receive",
      "payable": true
    },
    {
      "inputs": [
        {
          "components": [
            {
              "components": [
                {
                  "internalType": "address",
                  "name": "token0",
                  "type": "address"
                },
                {
                  "internalType": "address",
                  "name": "token1",
                  "type": "address"
                }
              ],
              "internalType": "struct PositionManager.Pair",
              "name": "pair",
              "type": "tuple"
            },
            {
              "internalType": "bool",
              "name": "side",
              "type": "bool"
            },
            {
              "internalType": "uint160",
              "name": "sqrtPriceX96",
              "type": "uint160"
            },
            {
              "internalType": "uint256",
              "name": "quantity",
              "type": "uint256"
            }
          ],
          "internalType": "struct PositionManager.Order",
          "name": "_order",
          "type": "tuple"
        }
      ],
      "name": "createLimitOrder",
      "outputs": [
        {
          "internalType": "uint256",
          "name": "amount0",
          "type": "uint256"
        },
        {
          "internalType": "uint256",
          "name": "amount1",
          "type": "uint256"
        },
        {
          "internalType": "int24",
          "name": "tickUpper",
          "type": "int24"
        },
        {
          "internalType": "int24",
          "name": "tickLower",
          "type": "int24"
        }
      ],
      "stateMutability": "nonpayable",
      "type": "function"
    },
    {
      "inputs": [
        {
          "internalType": "address",
          "name": "operator",
          "type": "address"
        },
        {
          "internalType": "address",
          "name": "",
          "type": "address"
        },
        {
          "internalType": "uint256",
          "name": "tokenId",
          "type": "uint256"
        },
        {
          "internalType": "bytes",
          "name": "",
          "type": "bytes"
        }
      ],
      "name": "onERC721Received",
      "outputs": [
        {
          "internalType": "bytes4",
          "name": "",
          "type": "bytes4"
        }
      ],
      "stateMutability": "nonpayable",
      "type": "function"
    },
    {
      "inputs": [
        {
          "internalType": "uint256",
          "name": "tokenId",
          "type": "uint256"
        },
        {
          "internalType": "address",
          "name": "recipient",
          "type": "address"
        }
      ],
      "name": "collectAllFees",
      "outputs": [
        {
          "internalType": "uint256",
          "name": "amount0",
          "type": "uint256"
        },
        {
          "internalType": "uint256",
          "name": "amount1",
          "type": "uint256"
        }
      ],
      "stateMutability": "nonpayable",
      "type": "function"
    },
    {
      "inputs": [
        {
          "internalType": "uint256",
          "name": "tokenId",
          "type": "uint256"
        },
        {
          "internalType": "uint128",
          "name": "_decreaseBy",
          "type": "uint128"
        }
      ],
      "name": "decreaseLiquidity",
      "outputs": [
        {
          "internalType": "uint256",
          "name": "amount0",
          "type": "uint256"
        },
        {
          "internalType": "uint256",
          "name": "amount1",
          "type": "uint256"
        }
      ],
      "stateMutability": "nonpayable",
      "type": "function"
    },
    {
      "inputs": [
        {
          "internalType": "uint256",
          "name": "tokenId",
          "type": "uint256"
        },
        {
          "internalType": "uint256",
          "name": "amountAdd0",
          "type": "uint256"
        },
        {
          "internalType": "uint256",
          "name": "amountAdd1",
          "type": "uint256"
        }
      ],
      "name": "increaseLiquidityCurrentRange",
      "outputs": [
        {
          "internalType": "uint128",
          "name": "liquidity",
          "type": "uint128"
        },
        {
          "internalType": "uint256",
          "name": "amount0",
          "type": "uint256"
        },
        {
          "internalType": "uint256",
          "name": "amount1",
          "type": "uint256"
        }
      ],
      "stateMutability": "nonpayable",
      "type": "function"
    },
    {
      "inputs": [
        {
          "internalType": "address",
          "name": "tokenA",
          "type": "address"
        },
        {
          "internalType": "address",
          "name": "tokenB",
          "type": "address"
        }
      ],
      "name": "getPool",
      "outputs": [
        {
          "internalType": "contract IUniswapV3Pool",
          "name": "",
          "type": "address"
        }
      ],
      "stateMutability": "pure",
      "type": "function",
      "constant": true
    }
  ],
  "bytecode": "0x60e060405234801561001057600080fd5b507f1f98431c8ad98523631ae4a59f267346ea31f9840000000000000000000000006080527fc02aaa39b223fe8d0a0e5c4f27ead9083c756cc200000000000000000000000060a0527fc36442b4a4522e871399cd717abdd847ab11fe8800000000000000000000000060c052731f98431c8ad98523631ae4a59f267346ea31f98473c02aaa39b223fe8d0a0e5c4f27ead9083c756cc273c36442b4a4522e871399cd717abdd847ab11fe88612cc86101336000398061059752806106af52806107985280610b9b5280610c725280610f89528061169b52806116c652806117785280611821528061186552508060f15280610384528061047a52806105075280611900528061194652806119ba525080610b745280610d275250612cc86000f3fe6080604052600436106100e15760003560e01c8063b02c43d01161007f578063c45a015511610059578063c45a0155146102cf578063cf8359c6146102e4578063d348799714610304578063df2ab5bb1461032457610165565b8063b02c43d01461025a578063b44a27221461028a578063c311f6441461029f57610165565b80634aa4a4fc116100bb5780634aa4a4fc146101bb578063531aa03e146101dd578063617d6d6e146101fd57806399d7b5941461022c57610165565b806312210e8a1461016a578063150b7a021461017257806349404b7c146101a857610165565b3661016557336001600160a01b037f00000000000000000000000000000000000000000000000000000000000000001614610163576040805162461bcd60e51b815260206004820152600960248201527f4e6f742057455448390000000000000000000000000000000000000000000000604482015290519081900360640190fd5b005b600080fd5b610163610337565b34801561017e57600080fd5b5061019261018d3660046123f2565b610349565b60405161019f919061297f565b60405180910390f35b6101636101b6366004612669565b610380565b3480156101c757600080fd5b506101d0610505565b60405161019f9190612889565b3480156101e957600080fd5b506101d06101f83660046123ba565b610529565b34801561020957600080fd5b5061021d610218366004612762565b61055e565b60405161019f93929190612bdb565b34801561023857600080fd5b5061024c61024736600461268d565b610643565b60405161019f929190612c0e565b34801561026657600080fd5b5061027a610275366004612651565b61074d565b60405161019f9493929190612942565b34801561029657600080fd5b506101d0610796565b3480156102ab57600080fd5b506102bf6102ba366004612571565b6107ba565b60405161019f9493929190612c1c565b3480156102db57600080fd5b506101d0610b72565b3480156102f057600080fd5b5061024c6102ff366004612669565b610b96565b34801561031057600080fd5b5061016361031f366004612711565b610d12565b610163610332366004612463565b610d90565b4715610347576103473347610e79565b565b60006103558685610f82565b507f150b7a020000000000000000000000000000000000000000000000000000000095945050505050565b60007f00000000000000000000000000000000000000000000000000000000000000006001600160a01b03166370a08231306040518263ffffffff1660e01b815260040180826001600160a01b0316815260200191505060206040518083038186803b1580156103ef57600080fd5b505afa158015610403573d6000803e3d6000fd5b505050506040513d602081101561041957600080fd5b5051905082811015610472576040805162461bcd60e51b815260206004820152601260248201527f496e73756666696369656e742057455448390000000000000000000000000000604482015290519081900360640190fd5b8015610500577f00000000000000000000000000000000000000000000000000000000000000006001600160a01b0316632e1a7d4d826040518263ffffffff1660e01b815260040180828152602001915050600060405180830381600087803b1580156104de57600080fd5b505af11580156104f2573d6000803e3d6000fd5b505050506105008282610e79565b505050565b7f000000000000000000000000000000000000000000000000000000000000000081565b6000610555731f98431c8ad98523631ae4a59f267346ea31f9846105508585610bb8611163565b6111b9565b90505b92915050565b6000806000806040518060c0016040528088815260200187815260200186815260200160008152602001600081526020014281525090507f00000000000000000000000000000000000000000000000000000000000000006001600160a01b031663219f5d17826040518263ffffffff1660e01b81526004016105e19190612ae9565b606060405180830381600087803b1580156105fb57600080fd5b505af115801561060f573d6000803e3d6000fd5b505050506040513d601f19601f820116820180604052508101906106339190612588565b9199909850909650945050505050565b6040805160a0810182528381526fffffffffffffffffffffffffffffffff8316602082015260008183018190526060820181905242608083015291517f0c49ccbe0000000000000000000000000000000000000000000000000000000081528291906001600160a01b037f00000000000000000000000000000000000000000000000000000000000000001690630c49ccbe906106e4908490600401612a9d565b6040805180830381600087803b1580156106fd57600080fd5b505af1158015610711573d6000803e3d6000fd5b505050506040513d601f19601f8201168201806040525081019061073591906126ee565b90935091506107458584846112c8565b509250929050565b60006020819052908152604090208054600182015460028301546003909301546001600160a01b03928316936fffffffffffffffffffffffffffffffff90921692918216911684565b7f000000000000000000000000000000000000000000000000000000000000000081565b600080808080731f98431c8ad98523631ae4a59f267346ea31f984631698ee826107e7602089018961237b565b6107f760408a0160208b0161237b565b610bb86040518463ffffffff1660e01b81526004016108189392919061291a565b60206040518083038186803b15801561083057600080fd5b505afa158015610844573d6000803e3d6000fd5b505050506040513d601f19601f82011682018060405250810190610868919061239e565b9050600080826001600160a01b0316633850c7bd6040518163ffffffff1660e01b815260040160e06040518083038186803b1580156108a657600080fd5b505afa1580156108ba573d6000803e3d6000fd5b505050506040513d601f19601f820116820180604052508101906108de91906125be565b5050505050915091508760400160208101906108fa91906124a4565b610927576001600160a01b03821661091860808a0160608b0161237b565b6001600160a01b03161161094c565b6001600160a01b03821661094160808a0160608b0161237b565b6001600160a01b0316105b6109715760405162461bcd60e51b8152600401610968906129ac565b60405180910390fd5b600061098b61098660808b0160608c0161237b565b611311565b905061099d60608a0160408b016124a4565b6109af578160020b8160020b136109b9565b8160020b8160020b125b6109d55760405162461bcd60e51b815260040161096890612a1a565b6109e560608a0160408b016124a4565b156109f857809550600186039450610a02565b8094508460010195505b620d89e8600287900b1315610a295760405162461bcd60e51b8152600401610968906129e3565b7ffffffffffffffffffffffffffffffffffffffffffffffffffffffffffff27618600286900b1215610a6d5760405162461bcd60e51b8152600401610968906129e3565b610a7d60608a0160408b016124a4565b610a88576000610a8e565b88608001355b9750610aa060608a0160408b016124a4565b610aae578860800135610ab1565b60005b9650610add610ac360208b018b61237b565b89610ad460408d0160208e0161237b565b8a898b3361168f565b507f14dd895b7a312ffa847734fca0908ad722e84fc9c1c21aa706c14670ee241f219250610b1191505060208b018b61237b565b610b2160408c0160208d0161237b565b610b3160608d0160408e016124a4565b610b4160808e0160608f0161237b565b8d608001358a8c8f8f604051610b5f999897969594939291906128c1565b60405180910390a1505050509193509193565b7f000000000000000000000000000000000000000000000000000000000000000081565b6000807f00000000000000000000000000000000000000000000000000000000000000006001600160a01b03166342842e0e3330876040518463ffffffff1660e01b8152600401610be99392919061289d565b600060405180830381600087803b158015610c0357600080fd5b505af1158015610c17573d6000803e3d6000fd5b5050604080516080810182528781523060208201526fffffffffffffffffffffffffffffffff818301819052606082015290517ffc6f78650000000000000000000000000000000000000000000000000000000081529092507f00000000000000000000000000000000000000000000000000000000000000006001600160a01b0316915063fc6f786590610cb0908490600401612a51565b6040805180830381600087803b158015610cc957600080fd5b505af1158015610cdd573d6000803e3d6000fd5b505050506040513d601f19601f82011682018060405250810190610d0191906126ee565b9093509150610745858484876118aa565b6000610d20828401846124c0565b9050610d507f000000000000000000000000000000000000000000000000000000000000000082600001516118db565b508415610d6b578051516020820151610d6b919033886118fe565b8315610d8957610d89816000015160200151826020015133876118fe565b5050505050565b6000836001600160a01b03166370a08231306040518263ffffffff1660e01b815260040180826001600160a01b0316815260200191505060206040518083038186803b158015610ddf57600080fd5b505afa158015610df3573d6000803e3d6000fd5b505050506040513d6020811015610e0957600080fd5b5051905082811015610e62576040805162461bcd60e51b815260206004820152601260248201527f496e73756666696369656e7420746f6b656e0000000000000000000000000000604482015290519081900360640190fd5b8015610e7357610e73848383611a8e565b50505050565b604080516000808252602082019092526001600160a01b0384169083906040518082805190602001908083835b60208310610ec55780518252601f199092019160209182019101610ea6565b6001836020036101000a03801982511681845116808217855250505050505090500191505060006040518083038185875af1925050503d8060008114610f27576040519150601f19603f3d011682016040523d82523d6000602084013e610f2c565b606091505b5050905080610500576040805162461bcd60e51b815260206004820152600360248201527f5354450000000000000000000000000000000000000000000000000000000000604482015290519081900360640190fd5b60008060007f00000000000000000000000000000000000000000000000000000000000000006001600160a01b03166399fbab88856040518263ffffffff1660e01b8152600401610fd39190612c05565b6101806040518083038186803b158015610fec57600080fd5b505afa158015611000573d6000803e3d6000fd5b505050506040513d601f19601f82011682018060405250810190611024919061278d565b5050505097505050509450945050506040518060800160405280866001600160a01b03168152602001826fffffffffffffffffffffffffffffffff168152602001846001600160a01b03168152602001836001600160a01b031681525060008086815260200190815260200160002060008201518160000160006101000a8154816001600160a01b0302191690836001600160a01b0316021790555060208201518160010160006101000a8154816fffffffffffffffffffffffffffffffff02191690836fffffffffffffffffffffffffffffffff16021790555060408201518160020160006101000a8154816001600160a01b0302191690836001600160a01b0316021790555060608201518160030160006101000a8154816001600160a01b0302191690836001600160a01b031602179055509050505050505050565b61116b6122bf565b826001600160a01b0316846001600160a01b03161115611189579192915b50604080516060810182526001600160a01b03948516815292909316602083015262ffffff169181019190915290565b600081602001516001600160a01b031682600001516001600160a01b0316106111e157600080fd5b50805160208083015160409384015184516001600160a01b0394851681850152939091168385015262ffffff166060808401919091528351808403820181526080840185528051908301207fff0000000000000000000000000000000000000000000000000000000000000060a085015294901b7fffffffffffffffffffffffffffffffffffffffff0000000000000000000000001660a183015260b58201939093527fe34f199b19b2b4f47f68442619d555527d244f78a3297ea89325f843f87b8b5460d5808301919091528251808303909101815260f5909101909152805191012090565b6000838152602081905260409020805460028201546003909201546001600160a01b0391821692821691166112fe828487611a8e565b611309818486611a8e565b505050505050565b60006401000276a36001600160a01b0383161080159061134d575073fffd8963efd1fc6a506488495d951d5263988d266001600160a01b038316105b61139e576040805162461bcd60e51b815260206004820152600160248201527f5200000000000000000000000000000000000000000000000000000000000000604482015290519081900360640190fd5b77ffffffffffffffffffffffffffffffffffffffff00000000602083901b166fffffffffffffffffffffffffffffffff811160071b81811c67ffffffffffffffff811160061b90811c63ffffffff811160051b90811c61ffff811160041b90811c60ff8111600390811b91821c600f811160021b90811c918211600190811b92831c9790881196179094179092171790911717176080811061144857607f810383901c9150611452565b80607f0383901b91505b908002607f81811c60ff83811c9190911c800280831c81831c1c800280841c81841c1c800280851c81851c1c800280861c81861c1c800280871c81871c1c800280881c81881c1c800280891c81891c1c8002808a1c818a1c1c8002808b1c818b1c1c8002808c1c818c1c1c8002808d1c818d1c1c8002808e1c9c81901c9c909c1c80029c8d901c9e9d7fffffffffffffffffffffffffffffffffffffffffffffffffffffffffffffff808f0160401b60c09190911c678000000000000000161760c19b909b1c674000000000000000169a909a1760c29990991c672000000000000000169890981760c39790971c671000000000000000169690961760c49590951c670800000000000000169490941760c59390931c670400000000000000169290921760c69190911c670200000000000000161760c79190911c670100000000000000161760c89190911c6680000000000000161760c99190911c6640000000000000161760ca9190911c6620000000000000161760cb9190911c6610000000000000161760cc9190911c6608000000000000161760cd9190911c66040000000000001617693627a301d71055774c8581027ffffffffffffffffffffffffffffffffffd709b7e5480fba5a50fed5e62ffc5568101608090811d906fdb2df09e81959a81455e260799a0632f8301901d600281810b9083900b1461168057886001600160a01b031661166482611c1e565b6001600160a01b03161115611679578161167b565b805b611682565b815b9998505050505050505050565b6000806000806116c08b7f00000000000000000000000000000000000000000000000000000000000000008c611f97565b6116eb897f00000000000000000000000000000000000000000000000000000000000000008a611f97565b60408051610160810182526001600160a01b03808e1682528b81166020830152610bb88284015260028a810b606084015289900b608083015260a082018d905260c082018b9052600060e08301819052610100830152306101208301524261014083015291517f8831645600000000000000000000000000000000000000000000000000000000815290917f000000000000000000000000000000000000000000000000000000000000000016906388316456906117ad908490600401612b2d565b608060405180830381600087803b1580156117c757600080fd5b505af11580156117db573d6000803e3d6000fd5b505050506040513d601f19601f820116820180604052508101906117ff91906126b1565b929750909550935091506118138686610f82565b8a831015611857576118478c7f00000000000000000000000000000000000000000000000000000000000000006000611f97565b828b036118558d3383611a8e565b505b8882101561189b5761188b8a7f00000000000000000000000000000000000000000000000000000000000000006000611f97565b8189036118998b3383611a8e565b505b50975097509750979350505050565b600084815260208190526040902060028101546003909101546001600160a01b0391821691166112fe828487611a8e565b60006118e783836111b9565b9050336001600160a01b0382161461055857600080fd5b7f00000000000000000000000000000000000000000000000000000000000000006001600160a01b0316846001600160a01b031614801561193f5750804710155b15611a61577f00000000000000000000000000000000000000000000000000000000000000006001600160a01b031663d0e30db0826040518263ffffffff1660e01b81526004016000604051808303818588803b15801561199f57600080fd5b505af11580156119b3573d6000803e3d6000fd5b50505050507f00000000000000000000000000000000000000000000000000000000000000006001600160a01b031663a9059cbb83836040518363ffffffff1660e01b815260040180836001600160a01b0316815260200182815260200192505050602060405180830381600087803b158015611a2f57600080fd5b505af1158015611a43573d6000803e3d6000fd5b505050506040513d6020811015611a5957600080fd5b50610e739050565b6001600160a01b038316301415611a8257611a7d848383611a8e565b610e73565b610e7384848484612127565b604080516001600160a01b038481166024830152604480830185905283518084039091018152606490920183526020820180517bffffffffffffffffffffffffffffffffffffffffffffffffffffffff167fa9059cbb000000000000000000000000000000000000000000000000000000001781529251825160009485949389169392918291908083835b60208310611b385780518252601f199092019160209182019101611b19565b6001836020036101000a0380198251168184511680821785525050505050509050019150506000604051808303816000865af19150503d8060008114611b9a576040519150601f19603f3d011682016040523d82523d6000602084013e611b9f565b606091505b5091509150818015611bcd575080511580611bcd5750808060200190516020811015611bca57600080fd5b50515b610d89576040805162461bcd60e51b815260206004820152600260248201527f5354000000000000000000000000000000000000000000000000000000000000604482015290519081900360640190fd5b60008060008360020b12611c35578260020b611c3d565b8260020b6000035b9050620d89e8811115611c97576040805162461bcd60e51b815260206004820152600160248201527f5400000000000000000000000000000000000000000000000000000000000000604482015290519081900360640190fd5b600060018216611cb857700100000000000000000000000000000000611cca565b6ffffcb933bd6fad37aa2d162d1a5940015b70ffffffffffffffffffffffffffffffffff1690506002821615611cfe576ffff97272373d413259a46990580e213a0260801c5b6004821615611d1d576ffff2e50f5f656932ef12357cf3c7fdcc0260801c5b6008821615611d3c576fffe5caca7e10e4e61c3624eaa0941cd00260801c5b6010821615611d5b576fffcb9843d60f6159c9db58835c9266440260801c5b6020821615611d7a576fff973b41fa98c081472e6896dfb254c00260801c5b6040821615611d99576fff2ea16466c96a3843ec78b326b528610260801c5b6080821615611db8576ffe5dee046a99a2a811c461f1969c30530260801c5b610100821615611dd8576ffcbe86c7900a88aedcffc83b479aa3a40260801c5b610200821615611df8576ff987a7253ac413176f2b074cf7815e540260801c5b610400821615611e18576ff3392b0822b70005940c7a398e4b70f30260801c5b610800821615611e38576fe7159475a2c29b7443b29c7fa6e889d90260801c5b611000821615611e58576fd097f3bdfd2022b8845ad8f792aa58250260801c5b612000821615611e78576fa9f746462d870fdf8a65dc1f90e061e50260801c5b614000821615611e98576f70d869a156d2a1b890bb3df62baf32f70260801c5b618000821615611eb8576f31be135f97d08fd981231505542fcfa60260801c5b62010000821615611ed9576f09aa508b5b7a84e1c677de54f3e99bc90260801c5b62020000821615611ef9576e5d6af8dedb81196699c329225ee6040260801c5b62040000821615611f18576d2216e584f5fa1ea926041bedfe980260801c5b62080000821615611f35576b048a170391f7dc42444e8fa20260801c5b60008460020b1315611f6e57807fffffffffffffffffffffffffffffffffffffffffffffffffffffffffffffffff81611f6a57fe5b0490505b640100000000810615611f82576001611f85565b60005b60ff16602082901c0192505050919050565b604080516001600160a01b038481166024830152604480830185905283518084039091018152606490920183526020820180517bffffffffffffffffffffffffffffffffffffffffffffffffffffffff167f095ea7b3000000000000000000000000000000000000000000000000000000001781529251825160009485949389169392918291908083835b602083106120415780518252601f199092019160209182019101612022565b6001836020036101000a0380198251168184511680821785525050505050509050019150506000604051808303816000865af19150503d80600081146120a3576040519150601f19603f3d011682016040523d82523d6000602084013e6120a8565b606091505b50915091508180156120d65750805115806120d657508080602001905160208110156120d357600080fd5b50515b610d89576040805162461bcd60e51b815260206004820152600260248201527f5341000000000000000000000000000000000000000000000000000000000000604482015290519081900360640190fd5b604080516001600160a01b0385811660248301528481166044830152606480830185905283518084039091018152608490920183526020820180517bffffffffffffffffffffffffffffffffffffffffffffffffffffffff167f23b872dd00000000000000000000000000000000000000000000000000000000178152925182516000948594938a169392918291908083835b602083106121d95780518252601f1990920191602091820191016121ba565b6001836020036101000a0380198251168184511680821785525050505050509050019150506000604051808303816000865af19150503d806000811461223b576040519150601f19603f3d011682016040523d82523d6000602084013e612240565b606091505b509150915081801561226e57508051158061226e575080806020019051602081101561226b57600080fd5b50515b611309576040805162461bcd60e51b815260206004820152600360248201527f5354460000000000000000000000000000000000000000000000000000000000604482015290519081900360640190fd5b604080516060810182526000808252602082018190529181019190915290565b80356122ea81612c3d565b919050565b80516122ea81612c3d565b60008083601f84011261230b578182fd5b50813567ffffffffffffffff811115612322578182fd5b60208301915083602082850101111561233a57600080fd5b9250929050565b8051600281900b81146122ea57600080fd5b80516122ea81612c63565b805161ffff811681146122ea57600080fd5b80516122ea81612c81565b60006020828403121561238c578081fd5b813561239781612c3d565b9392505050565b6000602082840312156123af578081fd5b815161239781612c3d565b600080604083850312156123cc578081fd5b82356123d781612c3d565b915060208301356123e781612c3d565b809150509250929050565b600080600080600060808688031215612409578081fd5b853561241481612c3d565b9450602086013561242481612c3d565b935060408601359250606086013567ffffffffffffffff811115612446578182fd5b612452888289016122fa565b969995985093965092949392505050565b600080600060608486031215612477578283fd5b833561248281612c3d565b925060208401359150604084013561249981612c3d565b809150509250925092565b6000602082840312156124b5578081fd5b813561239781612c55565b600081830360808112156124d2578182fd5b6040516040810167ffffffffffffffff82821081831117156124f057fe5b816040526060841215612501578485fd5b60a083019350818410818511171561251557fe5b50826040528435925061252783612c3d565b91825260208401359161253983612c3d565b8260608301526040850135925061254f83612c81565b608082018390528152612564606085016122df565b6020820152949350505050565b600060a08284031215612582578081fd5b50919050565b60008060006060848603121561259c578081fd5b83516125a781612c63565b602085015160409095015190969495509392505050565b600080600080600080600060e0888a0312156125d8578485fd5b87516125e381612c3d565b96506125f160208901612341565b95506125ff6040890161235e565b945061260d6060890161235e565b935061261b6080890161235e565b925060a088015160ff81168114612630578283fd5b60c089015190925061264181612c55565b8091505092959891949750929550565b600060208284031215612662578081fd5b5035919050565b6000806040838503121561267b578182fd5b8235915060208301356123e781612c3d565b6000806040838503121561269f578182fd5b8235915060208301356123e781612c63565b600080600080608085870312156126c6578182fd5b8451935060208501516126d881612c63565b6040860151606090960151949790965092505050565b60008060408385031215612700578182fd5b505080516020909101519092909150565b60008060008060608587031215612726578182fd5b8435935060208501359250604085013567ffffffffffffffff81111561274a578283fd5b612756878288016122fa565b95989497509550505050565b600080600060608486031215612776578081fd5b505081359360208301359350604090920135919050565b6000806000806000806000806000806000806101808d8f0312156127af578586fd5b8c516bffffffffffffffffffffffff811681146127ca578687fd5b9b506127d860208e016122ef565b9a506127e660408e016122ef565b99506127f460608e016122ef565b985061280260808e01612370565b975061281060a08e01612341565b965061281e60c08e01612341565b955061282c60e08e01612353565b94506101008d015193506101208d0151925061284b6101408e01612353565b915061285a6101608e01612353565b90509295989b509295989b509295989b565b6001600160a01b03169052565b60020b9052565b62ffffff169052565b6001600160a01b0391909116815260200190565b6001600160a01b039384168152919092166020820152604081019190915260600190565b6001600160a01b03998a168152978916602089015295151560408801529390961660608601526080850191909152600290810b60a08501529390930b60c083015260e08201929092526101008101919091526101200190565b6001600160a01b03938416815291909216602082015262ffffff909116604082015260600190565b6001600160a01b0394851681526fffffffffffffffffffffffffffffffff9390931660208401529083166040830152909116606082015260800190565b7fffffffff0000000000000000000000000000000000000000000000000000000091909116815260200190565b60208082526003908201527f4f4f420000000000000000000000000000000000000000000000000000000000604082015260600190565b60208082526011908201527f5469636b204f7574206f662072616e6765000000000000000000000000000000604082015260600190565b60208082526011908201527f506f736974696f6e207469636b204f4f42000000000000000000000000000000604082015260600190565b815181526020808301516001600160a01b0316908201526040808301516fffffffffffffffffffffffffffffffff90811691830191909152606092830151169181019190915260800190565b600060a082019050825182526fffffffffffffffffffffffffffffffff602084015116602083015260408301516040830152606083015160608301526080830151608083015292915050565b600060c082019050825182526020830151602083015260408301516040830152606083015160608301526080830151608083015260a083015160a083015292915050565b600061016082019050612b4182845161286c565b6020830151612b53602084018261286c565b506040830151612b666040840182612880565b506060830151612b796060840182612879565b506080830151612b8c6080840182612879565b5060a083015160a083015260c083015160c083015260e083015160e083015261010080840151818401525061012080840151612bca8285018261286c565b505061014092830151919092015290565b6fffffffffffffffffffffffffffffffff9390931683526020830191909152604082015260600190565b90815260200190565b918252602082015260400190565b9384526020840192909252600290810b60408401520b606082015260800190565b6001600160a01b0381168114612c5257600080fd5b50565b8015158114612c5257600080fd5b6fffffffffffffffffffffffffffffffff81168114612c5257600080fd5b62ffffff81168114612c5257600080fdfea264697066735822122060f05bb6f374f86841ddf5691af91e8c6e572373977f135bf4711bd6922171f364736f6c63430007060033",
  "immutableReferences": {
    "2768": [
      {
        "length": 32,
        "start": 2932
      },
      {
        "length": 32,
        "start": 3367
      }
    ],
    "2772": [
      {
        "length": 32,
        "start": 241
      },
      {
        "length": 32,
        "start": 900
      },
      {
        "length": 32,
        "start": 1146
      },
      {
        "length": 32,
        "start": 1287
      },
      {
        "length": 32,
        "start": 6400
      },
      {
        "length": 32,
        "start": 6470
      },
      {
        "length": 32,
        "start": 6586
      }
    ],
    "4088": [
      {
        "length": 32,
        "start": 1431
      },
      {
        "length": 32,
        "start": 1711
      },
      {
        "length": 32,
        "start": 1944
      },
      {
        "length": 32,
        "start": 2971
      },
      {
        "length": 32,
        "start": 3186
      },
      {
        "length": 32,
        "start": 3977
      },
      {
        "length": 32,
        "start": 5787
      },
      {
        "length": 32,
        "start": 5830
      },
      {
        "length": 32,
        "start": 6008
      },
      {
        "length": 32,
        "start": 6177
      },
      {
        "length": 32,
        "start": 6245
      }
    ]
  },
  "source": "// SPDX-License-Identifier: GPL-2.0-or-later\n\npragma solidity >= 0.7.6;\npragma abicoder v2;\n\n\nimport '@uniswap/v3-core/contracts/interfaces/IUniswapV3Pool.sol';\nimport '@uniswap/v3-core/contracts/interfaces/IUniswapV3Factory.sol';\nimport '@uniswap/v3-core/contracts/libraries/TickMath.sol';\nimport '@openzeppelin/contracts/token/ERC721/IERC721Receiver.sol';\nimport '@uniswap/v3-periphery/contracts/interfaces/ISwapRouter.sol';\nimport '@uniswap/v3-periphery/contracts/interfaces/INonfungiblePositionManager.sol';\nimport '@uniswap/v3-periphery/contracts/libraries/TransferHelper.sol';\nimport '@uniswap/v3-periphery/contracts/base/LiquidityManagement.sol';\n\n\n\ncontract PositionManager is IERC721Receiver, LiquidityManagement {\n\n    uint24 constant poolFee = 3000; //default to 0.3% Uni Pools\n\n    INonfungiblePositionManager public immutable nonfungiblePositionManager;\n\n    address constant private v3FactoryAddress = address(0x1F98431c8aD98523631AE4a59f267346ea31F984);\n\n    event orderCreated(\n        address token0,\n        address token1,\n        bool side,\n        uint160 sqrtPriceX96,\n        uint256 quantity,\n\n        int24 tickLower,\n        int24 tickUpper,\n        uint256 amount0,\n        uint256 amount1\n    );\n\n    IUniswapV3Factory constant v3Factory = IUniswapV3Factory(v3FactoryAddress);\n    \n    struct Pair {\n        address token0;\n        address token1;\n    }\n\n    struct Order {\n        Pair pair;\n        bool side; //true = buy token1 for token0, false = buy token0 for token1\n        uint160 sqrtPriceX96; // Uniswap pool price \n        uint256 quantity;\n    }\n\n    //Tracks effective UniLP deposits\n    struct Deposit {\n        address owner;\n        uint128 liquidity;\n        address token0;\n        address token1;\n\n    }\n    \n    // Our constructor hard codes the address of the nonfungible position manager \n    // interface, V3 router, and the periphery immutable state constructor, which \n    // requires the factory and the address of weth9 (the ERC-20 wrapper for ether).\n\n    constructor(\n        //INonfungiblePositionManager _nonfungiblePositionManager,\n        //address _factory,\n        //address _WETH9\n    ) PeripheryImmutableState(\n        v3FactoryAddress, \n        address(0xC02aaA39b223FE8D0A0e5C4F27eAD9083C756Cc2)\n      ) {\n        //nonfungiblePositionManager = _nonfungiblePositionManager;\n        nonfungiblePositionManager = INonfungiblePositionManager(address(0xC36442b4a4522E871399CD717aBDD847Ab11FE88));\n    }\n\n    mapping(uint256 => Deposit) public deposits;\n\n    \n    /// @notice Calls the mint function defined in periphery to mint a new position to the contract on behalf of the user\n    /// @return tokenId The id of the newly minted ERC721\n    /// @return liquidity The amount of liquidity for the position\n    /// @return amount0 The amount of token0\n    /// @return amount1 The amount of token1\n    function mintNewPosition(\n        address _token0,\n        uint256 _amount0,\n        address _token1,\n        uint256 _amount1,\n        int24 _tickLower, \n        int24 _tickUpper,\n        address _recipient\n    )\n        private\n        returns (\n            uint256 tokenId,\n            uint128 liquidity,\n            uint256 amount0,\n            uint256 amount1\n        )\n    {\n\n        // Approve the Uniswap position manager\n        TransferHelper.safeApprove(_token0, address(nonfungiblePositionManager), _amount0);\n        TransferHelper.safeApprove(_token1, address(nonfungiblePositionManager), _amount1);\n\n\n        INonfungiblePositionManager.MintParams memory params =\n            INonfungiblePositionManager.MintParams({\n                token0: _token0,\n                token1: _token1,\n                fee: poolFee,\n                tickLower: _tickLower,\n                tickUpper: _tickUpper,\n                amount0Desired: _amount0,\n                amount1Desired: _amount1,\n                amount0Min: 0,\n                amount1Min: 0,\n                recipient: address(this),\n                deadline: block.timestamp\n            });\n\n        // Note that the pool must already be created and initialized in order to mint\n        (tokenId, liquidity, amount0, amount1) = nonfungiblePositionManager.mint(params);\n\n        // Create a deposit in our db\n        _createDeposit(_recipient, tokenId);\n\n        // Remove allowance and refund in both assets.\n        if (amount0 < _amount0) {\n            TransferHelper.safeApprove(_token0, address(nonfungiblePositionManager), 0);\n            uint256 refund0 = _amount0 - amount0;\n            TransferHelper.safeTransfer(_token0, msg.sender, refund0);\n        }\n\n        if (amount1 < _amount1) {\n            TransferHelper.safeApprove(_token1, address(nonfungiblePositionManager), 0);\n            uint256 refund1 = _amount1 - amount1;\n            TransferHelper.safeTransfer(_token1, msg.sender, refund1);\n        }\n\n    }\n    \n    /// @notice creates a limit order by minting a new single sided liquidity position on uniswap\n    \n    function createLimitOrder(Order calldata _order)\n    public\n    returns (\n        uint256 amount0,\n        uint256 amount1,\n        int24 tickUpper,\n        int24 tickLower\n    )\n    {\n        // identify target pool: we always choose the 0.3% fee pool\n        IUniswapV3Pool pool = IUniswapV3Pool(v3Factory.getPool(_order.pair.token0, _order.pair.token1, poolFee));\n\n        //get current pool price and tick\n        (uint160 sqrtPriceX96, int24 poolTick,,,,,) =  pool.slot0();\n        \n        // verify that price is higher/lower \n        require(\n            _order.side ? _order.sqrtPriceX96 < sqrtPriceX96 : _order.sqrtPriceX96 > sqrtPriceX96\n            , \"OOB\" //out of bounds\n        );\n\n        //int24 tickUpper;\n        //int24 tickLower;\n        int24 positionTick = TickMath.getTickAtSqrtRatio(_order.sqrtPriceX96);\n\n        //additional safety check that tick is not identical to current pool tick\n        require(\n            _order.side ? positionTick < poolTick : positionTick > poolTick,\n            \"Position tick OOB\" //position tick out of bounds\n        );\n\n        // converts price into tick range\n        if (_order.side) {\n            tickUpper = positionTick;\n            tickLower = tickUpper - 1;\n        }\n        else {\n            tickLower = positionTick;\n            tickUpper = tickLower + 1;\n        }\n        \n        require(tickUpper <= TickMath.MAX_TICK, 'Tick Out of range');\n        require(tickLower >= TickMath.MIN_TICK, 'Tick Out of range');\n        \n        amount0 = _order.side ? _order.quantity : 0 ;\n        amount1 = _order.side ? 0 : _order.quantity ;\n\n        \n\n        // PositionManager Creates position\n        mintNewPosition(\n            _order.pair.token0,\n            amount0,\n            _order.pair.token1,\n            amount1,\n            tickLower,\n            tickUpper,\n            msg.sender\n        );\n\n        emit orderCreated(\n            _order.pair.token0,\n            _order.pair.token1,\n            _order.side,\n            _order.sqrtPriceX96,\n            _order.quantity,\n\n            tickLower,\n            tickUpper,\n            amount0,\n            amount1\n        );\n    }\n\n    \n\n    function _createDeposit(address owner, uint256 tokenId) internal {\n        (, , address token0, address token1, , , , uint128 liquidity, , , , ) =\n            nonfungiblePositionManager.positions(tokenId);\n\n        // set the owner and data for position\n        // operator is msg.sender\n        deposits[tokenId] = Deposit({owner: owner, liquidity: liquidity, token0: token0, token1: token1});\n    }\n\n    //fallback function upon sending a Uni Position to the contract? \n    function onERC721Received(\n        address operator,\n        address,\n        uint256 tokenId,\n        bytes calldata\n    ) external override returns (bytes4) {\n        // get position information\n        _createDeposit(operator, tokenId);\n        return this.onERC721Received.selector;\n    }\n\n\n    /// @notice Transfers funds to owner of NFT\n    /// @param tokenId The id of the erc721\n    /// @param amount0 The amount of token0\n    /// @param amount1 The amount of token1\n    function _sendToOwner(\n        uint256 tokenId,\n        uint256 amount0,\n        uint256 amount1\n    ) internal {\n        // get owner of contract\n        address owner = deposits[tokenId].owner;\n\n        address token0 = deposits[tokenId].token0;\n        address token1 = deposits[tokenId].token1;\n        // send collected fees to owner\n        TransferHelper.safeTransfer(token0, owner, amount0);\n        TransferHelper.safeTransfer(token1, owner, amount1);\n    }\n\n    function _sendTo(\n        uint256 tokenId,\n        uint256 amount0, \n        uint256 amount1,\n        address recipient\n    ) internal {\n        \n        address token0 = deposits[tokenId].token0;\n        address token1 = deposits[tokenId].token1;\n        // send collected fees to owner\n        TransferHelper.safeTransfer(token0, recipient, amount0);\n        TransferHelper.safeTransfer(token1, recipient, amount1);\n    }\n\n    /// @notice Collects the fees associated with provided liquidity\n    /// @dev The contract must hold the erc721 token before it can collect fees\n    /// @param tokenId The id of the erc721 token\n    /// @return amount0 The amount of fees collected in token0\n    /// @return amount1 The amount of fees collected in token1\n    function collectAllFees(\n        uint256 tokenId,\n        address recipient\n    ) external returns (uint256 amount0, uint256 amount1) {\n        // Caller must own the ERC721 position\n        // Call to safeTransfer will trigger `onERC721Received` which must return the selector else transfer will fail\n        nonfungiblePositionManager.safeTransferFrom(msg.sender, address(this), tokenId);\n\n        // set amount0Max and amount1Max to uint256.max to collect all fees\n        // alternatively can set recipient to msg.sender and avoid another transaction in `sendToOwner`\n        INonfungiblePositionManager.CollectParams memory params =\n            INonfungiblePositionManager.CollectParams({\n                tokenId: tokenId,\n                recipient: address(this),\n                amount0Max: type(uint128).max,\n                amount1Max: type(uint128).max\n            });\n\n        (amount0, amount1) = nonfungiblePositionManager.collect(params);\n\n        // send collected feed back to owner\n        _sendTo(tokenId, amount0, amount1, recipient);\n    }\n\n    /// @notice A function that decreases the current liquidity by half. An example to show how to call the `decreaseLiquidity` function defined in periphery.\n    /// @param tokenId The id of the erc721 token\n    /// @return amount0 The amount received back in token0\n    /// @return amount1 The amount returned back in token1\n    function decreaseLiquidity(uint256 tokenId, uint128 _decreaseBy) external returns (uint256 amount0, uint256 amount1) {\n        \n        // caller must be the owner of the NFT\n        // require(msg.sender == deposits[tokenId].owner, \"Not the owner\");\n        // get liquidity data for tokenId\n        // uint128 liquidity = deposits[tokenId].liquidity;\n\n        // amount0Min and amount1Min are price slippage checks\n        // if the amount received after burning is not greater than these minimums, transaction will fail\n        INonfungiblePositionManager.DecreaseLiquidityParams memory params =\n            INonfungiblePositionManager.DecreaseLiquidityParams({\n                tokenId: tokenId,\n                liquidity: _decreaseBy,\n                amount0Min: 0,\n                amount1Min: 0,\n                deadline: block.timestamp\n            });\n\n        (amount0, amount1) = nonfungiblePositionManager.decreaseLiquidity(params);\n\n        //send liquidity back to owner\n        _sendToOwner(tokenId, amount0, amount1);\n    }\n\n    /// @notice Increases liquidity in the current range\n    /// @dev Pool must be initialized already to add liquidity\n    /// @param tokenId The id of the erc721 token\n    /// @param amount0 The amount to add of token0\n    /// @param amount1 The amount to add of token1\n    function increaseLiquidityCurrentRange(\n        uint256 tokenId,\n        uint256 amountAdd0,\n        uint256 amountAdd1\n    )\n        external\n        returns (\n            uint128 liquidity,\n            uint256 amount0,\n            uint256 amount1\n        )\n    {\n        INonfungiblePositionManager.IncreaseLiquidityParams memory params =\n            INonfungiblePositionManager.IncreaseLiquidityParams({\n                tokenId: tokenId,\n                amount0Desired: amountAdd0,\n                amount1Desired: amountAdd1,\n                amount0Min: 0,\n                amount1Min: 0,\n                deadline: block.timestamp\n            });\n\n        (liquidity, amount0, amount1) = nonfungiblePositionManager.increaseLiquidity(params);\n    }\n\n\n    /// @dev Returns the pool for the given token pair and fee. The pool contract may or may not exist. \n    /// source: Uniswap repo\n    function getPool(\n        address tokenA,\n        address tokenB\n    ) public pure returns (IUniswapV3Pool) {\n        return IUniswapV3Pool(PoolAddress.computeAddress(v3FactoryAddress, PoolAddress.getPoolKey(tokenA, tokenB, poolFee)));\n    }\n\n    /*\n    function getPrice(address tokenIn, address tokenOut)\n        external\n        view\n        returns (uint256 price)\n    {\n        IUniswapV3Pool pool = IUniswapV3Pool(v3Factory.getPool(tokenIn, tokenOut, poolFee));\n        (uint160 sqrtPriceX96,,,,,,) =  pool.slot0();\n        return uint(sqrtPriceX96).mul(uint(sqrtPriceX96)).mul(1e18) >> (96 * 2);\n    }*/\n\n}",
  "sourcePath": "C:\\Users\\LeoDu\\Documents\\UniLimit\\contracts\\PositionManager.sol",
  "compiler": {
    "name": "solc",
    "version": "0.7.6+commit.7338295f.Emscripten.clang"
  },
  "schemaVersion": "3.4.10",
  "updatedAt": "2022-11-17T10:08:32.774Z",
  "networkType": "ethereum",
  "devdoc": {
    "kind": "dev",
    "methods": {
      "collectAllFees(uint256,address)": {
        "details": "The contract must hold the erc721 token before it can collect fees",
        "params": {
          "tokenId": "The id of the erc721 token"
        },
        "returns": {
          "amount0": "The amount of fees collected in token0",
          "amount1": "The amount of fees collected in token1"
        }
      },
      "decreaseLiquidity(uint256,uint128)": {
        "params": {
          "tokenId": "The id of the erc721 token"
        },
        "returns": {
          "amount0": "The amount received back in token0",
          "amount1": "The amount returned back in token1"
        }
      },
      "getPool(address,address)": {
        "details": "Returns the pool for the given token pair and fee. The pool contract may or may not exist.  source: Uniswap repo"
      },
      "increaseLiquidityCurrentRange(uint256,uint256,uint256)": {
        "details": "Pool must be initialized already to add liquidity",
        "params": {
          "amount0": "The amount to add of token0",
          "amount1": "The amount to add of token1",
          "tokenId": "The id of the erc721 token"
        }
      },
      "refundETH()": {
        "details": "Useful for bundling with mint or increase liquidity that uses ether, or exact output swaps that use ether for the input amount"
      },
      "sweepToken(address,uint256,address)": {
        "details": "The amountMinimum parameter prevents malicious contracts from stealing the token from users",
        "params": {
          "amountMinimum": "The minimum amount of token required for a transfer",
          "recipient": "The destination address of the token",
          "token": "The contract address of the token which will be transferred to `recipient`"
        }
      },
      "uniswapV3MintCallback(uint256,uint256,bytes)": {
        "details": "In the implementation you must pay the pool tokens owed for the minted liquidity. The caller of this method must be checked to be a UniswapV3Pool deployed by the canonical UniswapV3Factory.",
        "params": {
          "amount0Owed": "The amount of token0 due to the pool for the minted liquidity",
          "amount1Owed": "The amount of token1 due to the pool for the minted liquidity",
          "data": "Any data passed through by the caller via the IUniswapV3PoolActions#mint call"
        }
      },
      "unwrapWETH9(uint256,address)": {
        "details": "The amountMinimum parameter prevents malicious contracts from stealing WETH9 from users.",
        "params": {
          "amountMinimum": "The minimum amount of WETH9 to unwrap",
          "recipient": "The address receiving ETH"
        }
      }
    },
    "version": 1
  },
  "userdoc": {
    "kind": "user",
    "methods": {
      "collectAllFees(uint256,address)": {
        "notice": "Collects the fees associated with provided liquidity"
      },
      "createLimitOrder(((address,address),bool,uint160,uint256))": {
        "notice": "creates a limit order by minting a new single sided liquidity position on uniswap"
      },
      "decreaseLiquidity(uint256,uint128)": {
        "notice": "A function that decreases the current liquidity by half. An example to show how to call the `decreaseLiquidity` function defined in periphery."
      },
      "increaseLiquidityCurrentRange(uint256,uint256,uint256)": {
        "notice": "Increases liquidity in the current range"
      },
      "refundETH()": {
        "notice": "Refunds any ETH balance held by this contract to the `msg.sender`"
      },
      "sweepToken(address,uint256,address)": {
        "notice": "Transfers the full amount of a token held by this contract to recipient"
      },
      "uniswapV3MintCallback(uint256,uint256,bytes)": {
        "notice": "Called to `msg.sender` after minting liquidity to a position from IUniswapV3Pool#mint."
      },
      "unwrapWETH9(uint256,address)": {
        "notice": "Unwraps the contract's WETH9 balance and sends it to recipient as ETH."
      }
    },
    "version": 1
  }
}