{
  "contractName": "SettlerV1",
  "abi": [
    {
      "inputs": [
        {
          "internalType": "address",
          "name": "factoryAddress",
          "type": "address"
        }
      ],
      "stateMutability": "nonpayable",
      "type": "constructor"
    },
    {
      "anonymous": false,
      "inputs": [
        {
          "indexed": true,
          "internalType": "address",
          "name": "owner",
          "type": "address"
        },
        {
          "indexed": true,
          "internalType": "address",
          "name": "approved",
          "type": "address"
        },
        {
          "indexed": true,
          "internalType": "uint256",
          "name": "tokenId",
          "type": "uint256"
        }
      ],
      "name": "Approval",
      "type": "event"
    },
    {
      "anonymous": false,
      "inputs": [
        {
          "indexed": true,
          "internalType": "address",
          "name": "owner",
          "type": "address"
        },
        {
          "indexed": true,
          "internalType": "address",
          "name": "operator",
          "type": "address"
        },
        {
          "indexed": false,
          "internalType": "bool",
          "name": "approved",
          "type": "bool"
        }
      ],
      "name": "ApprovalForAll",
      "type": "event"
    },
    {
      "anonymous": false,
      "inputs": [
        {
          "indexed": true,
          "internalType": "address",
          "name": "from",
          "type": "address"
        },
        {
          "indexed": true,
          "internalType": "address",
          "name": "to",
          "type": "address"
        },
        {
          "indexed": true,
          "internalType": "uint256",
          "name": "tokenId",
          "type": "uint256"
        }
      ],
      "name": "Transfer",
      "type": "event"
    },
    {
      "inputs": [],
      "name": "MAX_TOKENS",
      "outputs": [
        {
          "internalType": "uint256",
          "name": "",
          "type": "uint256"
        }
      ],
      "stateMutability": "view",
      "type": "function"
    },
    {
      "inputs": [],
      "name": "PairFactory",
      "outputs": [
        {
          "internalType": "contract IUnilimitFactory",
          "name": "",
          "type": "address"
        }
      ],
      "stateMutability": "view",
      "type": "function"
    },
    {
      "inputs": [
        {
          "internalType": "uint256",
          "name": "",
          "type": "uint256"
        },
        {
          "internalType": "address",
          "name": "",
          "type": "address"
        }
      ],
      "name": "accruedFees",
      "outputs": [
        {
          "internalType": "uint256",
          "name": "",
          "type": "uint256"
        }
      ],
      "stateMutability": "view",
      "type": "function"
    },
    {
      "inputs": [
        {
          "internalType": "address",
          "name": "to",
          "type": "address"
        },
        {
          "internalType": "uint256",
          "name": "tokenId",
          "type": "uint256"
        }
      ],
      "name": "approve",
      "outputs": [],
      "stateMutability": "nonpayable",
      "type": "function"
    },
    {
      "inputs": [
        {
          "internalType": "address",
          "name": "owner",
          "type": "address"
        }
      ],
      "name": "balanceOf",
      "outputs": [
        {
          "internalType": "uint256",
          "name": "",
          "type": "uint256"
        }
      ],
      "stateMutability": "view",
      "type": "function"
    },
    {
      "inputs": [],
      "name": "baseURI",
      "outputs": [
        {
          "internalType": "string",
          "name": "",
          "type": "string"
        }
      ],
      "stateMutability": "view",
      "type": "function"
    },
    {
      "inputs": [
        {
          "internalType": "uint256",
          "name": "tokenId",
          "type": "uint256"
        }
      ],
      "name": "getApproved",
      "outputs": [
        {
          "internalType": "address",
          "name": "",
          "type": "address"
        }
      ],
      "stateMutability": "view",
      "type": "function"
    },
    {
      "inputs": [
        {
          "internalType": "address",
          "name": "owner",
          "type": "address"
        },
        {
          "internalType": "address",
          "name": "operator",
          "type": "address"
        }
      ],
      "name": "isApprovedForAll",
      "outputs": [
        {
          "internalType": "bool",
          "name": "",
          "type": "bool"
        }
      ],
      "stateMutability": "view",
      "type": "function"
    },
    {
      "inputs": [],
      "name": "name",
      "outputs": [
        {
          "internalType": "string",
          "name": "",
          "type": "string"
        }
      ],
      "stateMutability": "view",
      "type": "function"
    },
    {
      "inputs": [
        {
          "internalType": "uint256",
          "name": "tokenId",
          "type": "uint256"
        }
      ],
      "name": "ownerOf",
      "outputs": [
        {
          "internalType": "address",
          "name": "",
          "type": "address"
        }
      ],
      "stateMutability": "view",
      "type": "function"
    },
    {
      "inputs": [
        {
          "internalType": "address",
          "name": "from",
          "type": "address"
        },
        {
          "internalType": "address",
          "name": "to",
          "type": "address"
        },
        {
          "internalType": "uint256",
          "name": "tokenId",
          "type": "uint256"
        }
      ],
      "name": "safeTransferFrom",
      "outputs": [],
      "stateMutability": "nonpayable",
      "type": "function"
    },
    {
      "inputs": [
        {
          "internalType": "address",
          "name": "from",
          "type": "address"
        },
        {
          "internalType": "address",
          "name": "to",
          "type": "address"
        },
        {
          "internalType": "uint256",
          "name": "tokenId",
          "type": "uint256"
        },
        {
          "internalType": "bytes",
          "name": "_data",
          "type": "bytes"
        }
      ],
      "name": "safeTransferFrom",
      "outputs": [],
      "stateMutability": "nonpayable",
      "type": "function"
    },
    {
      "inputs": [
        {
          "internalType": "address",
          "name": "operator",
          "type": "address"
        },
        {
          "internalType": "bool",
          "name": "approved",
          "type": "bool"
        }
      ],
      "name": "setApprovalForAll",
      "outputs": [],
      "stateMutability": "nonpayable",
      "type": "function"
    },
    {
      "inputs": [
        {
          "internalType": "address",
          "name": "",
          "type": "address"
        }
      ],
      "name": "supportedPairs",
      "outputs": [
        {
          "internalType": "bool",
          "name": "",
          "type": "bool"
        }
      ],
      "stateMutability": "view",
      "type": "function"
    },
    {
      "inputs": [
        {
          "internalType": "bytes4",
          "name": "interfaceId",
          "type": "bytes4"
        }
      ],
      "name": "supportsInterface",
      "outputs": [
        {
          "internalType": "bool",
          "name": "",
          "type": "bool"
        }
      ],
      "stateMutability": "view",
      "type": "function"
    },
    {
      "inputs": [],
      "name": "symbol",
      "outputs": [
        {
          "internalType": "string",
          "name": "",
          "type": "string"
        }
      ],
      "stateMutability": "view",
      "type": "function"
    },
    {
      "inputs": [
        {
          "internalType": "uint256",
          "name": "index",
          "type": "uint256"
        }
      ],
      "name": "tokenByIndex",
      "outputs": [
        {
          "internalType": "uint256",
          "name": "",
          "type": "uint256"
        }
      ],
      "stateMutability": "view",
      "type": "function"
    },
    {
      "inputs": [
        {
          "internalType": "address",
          "name": "owner",
          "type": "address"
        },
        {
          "internalType": "uint256",
          "name": "index",
          "type": "uint256"
        }
      ],
      "name": "tokenOfOwnerByIndex",
      "outputs": [
        {
          "internalType": "uint256",
          "name": "",
          "type": "uint256"
        }
      ],
      "stateMutability": "view",
      "type": "function"
    },
    {
      "inputs": [
        {
          "internalType": "uint256",
          "name": "tokenId",
          "type": "uint256"
        }
      ],
      "name": "tokenURI",
      "outputs": [
        {
          "internalType": "string",
          "name": "",
          "type": "string"
        }
      ],
      "stateMutability": "view",
      "type": "function"
    },
    {
      "inputs": [],
      "name": "totalSupply",
      "outputs": [
        {
          "internalType": "uint256",
          "name": "",
          "type": "uint256"
        }
      ],
      "stateMutability": "view",
      "type": "function"
    },
    {
      "inputs": [
        {
          "internalType": "address",
          "name": "from",
          "type": "address"
        },
        {
          "internalType": "address",
          "name": "to",
          "type": "address"
        },
        {
          "internalType": "uint256",
          "name": "tokenId",
          "type": "uint256"
        }
      ],
      "name": "transferFrom",
      "outputs": [],
      "stateMutability": "nonpayable",
      "type": "function"
    },
    {
      "inputs": [
        {
          "internalType": "address",
          "name": "_tokenA",
          "type": "address"
        },
        {
          "internalType": "address",
          "name": "_tokenB",
          "type": "address"
        },
        {
          "internalType": "uint24",
          "name": "_fee",
          "type": "uint24"
        }
      ],
      "name": "deployNewPair",
      "outputs": [],
      "stateMutability": "nonpayable",
      "type": "function"
    },
    {
      "inputs": [
        {
          "internalType": "address payable",
          "name": "pairAddress",
          "type": "address"
        },
        {
          "internalType": "uint256",
          "name": "positionId",
          "type": "uint256"
        },
        {
          "internalType": "uint256",
          "name": "tokenId",
          "type": "uint256"
        }
      ],
      "name": "settle",
      "outputs": [],
      "stateMutability": "nonpayable",
      "type": "function"
    },
    {
      "inputs": [
        {
          "internalType": "address",
          "name": "assetAddress",
          "type": "address"
        },
        {
          "internalType": "uint256",
          "name": "tokenId",
          "type": "uint256"
        }
      ],
      "name": "withdrawAllFees",
      "outputs": [],
      "stateMutability": "nonpayable",
      "type": "function"
    },
    {
      "inputs": [
        {
          "internalType": "address",
          "name": "assetAddress",
          "type": "address"
        },
        {
          "internalType": "uint256",
          "name": "tokenId",
          "type": "uint256"
        },
        {
          "internalType": "uint256",
          "name": "amount",
          "type": "uint256"
        }
      ],
      "name": "withdrawFees",
      "outputs": [],
      "stateMutability": "nonpayable",
      "type": "function"
    }
  ],
  "bytecode": "0x60a06040526000600b553480156200001657600080fd5b5060405162003077380380620030778339810160408190526200003991620009a1565b604080518082018252601081526f2ab734a634b6b4ba1029b2ba3a3632b960811b60208083019190915282518084019093526003835262554c5360e81b90830152906200008d6301ffc9a760e01b62000131565b8151620000a2906006906020850190620008f5565b508051620000b8906007906020840190620008f5565b50620000cb6380ac58cd60e01b62000131565b620000dd635b5e139f60e01b62000131565b620000ef63780e9d6360e01b62000131565b50506001600a556001600160601b0319606082901b1660805260005b600a81101562000129576200012033620001b6565b6001016200010b565b5050620009f6565b6001600160e01b0319808216141562000191576040805162461bcd60e51b815260206004820152601c60248201527f4552433136353a20696e76616c696420696e7465726661636520696400000000604482015290519081900360640190fd5b6001600160e01b0319166000908152602081905260409020805460ff19166001179055565b600a600b5410620001e45760405162461bcd60e51b8152600401620001db90620009ca565b60405180910390fd5b620001f881600b546200020460201b60201c565b50600b80546001019055565b620002268282604051806020016040528060008152506200022a60201b60201c565b5050565b62000236838362000287565b620002456000848484620003db565b620002825760405162461bcd60e51b81526004018080602001828103825260328152602001806200301f6032913960400191505060405180910390fd5b505050565b6001600160a01b038216620002e3576040805162461bcd60e51b815260206004820181905260248201527f4552433732313a206d696e7420746f20746865207a65726f2061646472657373604482015290519081900360640190fd5b620002ee8162000569565b1562000341576040805162461bcd60e51b815260206004820152601c60248201527f4552433732313a20746f6b656e20616c7265616479206d696e74656400000000604482015290519081900360640190fd5b6200034f6000838362000282565b6001600160a01b038216600090815260016020908152604090912062000380918390620011bf6200058c821b17901c565b506200039e81836002620005a160201b620011cb179092919060201c565b5060405181906001600160a01b038416906000907fddf252ad1be2c89b69c2b068fc378daa952ba7f163c4a11628f55a4df523b3ef908290a45050565b6000620003fc846001600160a01b0316620005b960201b620011eb1760201c565b6200040a5750600162000561565b60006200052d630a85bd0160e11b62000422620005bf565b88878760405160240180856001600160a01b03168152602001846001600160a01b0316815260200183815260200180602001828103825283818151815260200191508051906020019080838360005b838110156200048b57818101518382015260200162000471565b50505050905090810190601f168015620004b95780820380516001836020036101000a031916815260200191505b5095505050505050604051602081830303815290604052906001600160e01b0319166020820180516001600160e01b0383818316178352505050506040518060600160405280603281526020016200301f60329139876001600160a01b0316620005c360201b620011f1179092919060201c565b905060008180602001905160208110156200054757600080fd5b50516001600160e01b031916630a85bd0160e11b14925050505b949350505050565b600062000586826002620005d460201b620012001790919060201c565b92915050565b60006200059a8383620005e2565b9392505050565b60006200056184846001600160a01b03851662000631565b3b151590565b3390565b6060620005618484600085620006cc565b60006200059a838362000833565b6000620005f0838362000833565b620006285750815460018181018455600084815260208082209093018490558454848252828601909352604090209190915562000586565b50600062000586565b600082815260018401602052604081205480620006985750506040805180820182528381526020808201848152865460018181018955600089815284812095516002909302909501918255915190820155865486845281880190925292909120556200059a565b82856000016001830381548110620006ac57fe5b90600052602060002090600202016001018190555060009150506200059a565b6060824710156200070f5760405162461bcd60e51b8152600401808060200182810382526026815260200180620030516026913960400191505060405180910390fd5b6200071a85620005b9565b6200076c576040805162461bcd60e51b815260206004820152601d60248201527f416464726573733a2063616c6c20746f206e6f6e2d636f6e7472616374000000604482015290519081900360640190fd5b600080866001600160a01b031685876040518082805190602001908083835b60208310620007ac5780518252601f1990920191602091820191016200078b565b6001836020036101000a03801982511681845116808217855250505050505090500191505060006040518083038185875af1925050503d806000811462000810576040519150601f19603f3d011682016040523d82523d6000602084013e62000815565b606091505b509092509050620008288282866200084b565b979650505050505050565b60009081526001919091016020526040902054151590565b606083156200085c5750816200059a565b8251156200086d5782518084602001fd5b8160405162461bcd60e51b81526004018080602001828103825283818151815260200191508051906020019080838360005b83811015620008b95781810151838201526020016200089f565b50505050905090810190601f168015620008e75780820380516001836020036101000a031916815260200191505b509250505060405180910390fd5b828054600181600116156101000203166002900490600052602060002090601f0160209004810192826200092d576000855562000978565b82601f106200094857805160ff191683800117855562000978565b8280016001018555821562000978579182015b82811115620009785782518255916020019190600101906200095b565b50620009869291506200098a565b5090565b5b808211156200098657600081556001016200098b565b600060208284031215620009b3578081fd5b81516001600160a01b03811681146200059a578182fd5b60208082526012908201527113585e081cdd5c1c1b1e481c995858da195960721b604082015260600190565b60805160601c61260662000a1960003980610b1d5280610e6e52506126066000f3fe608060405234801561001057600080fd5b50600436106101a35760003560e01c80635ee83769116100ee578063a22cb46511610097578063c87b56dd11610071578063c87b56dd1461033f578063e56e047614610352578063e985e9c514610365578063f47c84c514610378576101a3565b8063a22cb46514610311578063ae9fcb8014610324578063b88d4fde1461032c576101a3565b806370a08231116100c857806370a08231146102e357806395d89b41146102f65780639a090044146102fe576101a3565b80635ee83769146102b55780636352211e146102c85780636c0360eb146102db576101a3565b80632f745c591161015057806342842e0e1161012a57806342842e0e1461027c5780634f6ccce71461028f57806352a77e86146102a2576101a3565b80632f745c59146102435780633c4c6a2814610256578063425c209614610269576101a3565b8063095ea7b311610181578063095ea7b31461020657806318160ddd1461021b57806323b872dd14610230576101a3565b806301ffc9a7146101a857806306fdde03146101d1578063081812fc146101e6575b600080fd5b6101bb6101b63660046120d9565b610380565b6040516101c891906121a4565b60405180910390f35b6101d96103a3565b6040516101c891906121af565b6101f96101f4366004612101565b610439565b6040516101c89190612160565b61021961021436600461207e565b61049b565b005b610223610571565b6040516101c8919061232a565b61021961023e366004611f4d565b610582565b61022361025136600461207e565b6105d9565b610219610264366004611e90565b610604565b6102196102773660046120a9565b610970565b61021961028a366004611f4d565b610aa9565b61022361029d366004612101565b610ac4565b6102196102b0366004611efc565b610ada565b6101bb6102c3366004611e58565b610bd2565b6101f96102d6366004612101565b610be7565b6101d9610c0f565b6102236102f1366004611e58565b610c70565b6101d9610cd8565b61021961030c36600461207e565b610d39565b61021961031f366004612051565b610d67565b6101f9610e6c565b61021961033a366004611f8d565b610e90565b6101d961034d366004612101565b610eee565b610223610360366004612119565b61116f565b6101bb610373366004611ec4565b61118c565b6102236111ba565b6001600160e01b0319811660009081526020819052604090205460ff165b919050565b60068054604080516020601f600260001961010060018816150201909516949094049384018190048102820181019092528281526060939092909183018282801561042f5780601f106104045761010080835404028352916020019161042f565b820191906000526020600020905b81548152906001019060200180831161041257829003601f168201915b5050505050905090565b60006104448261120c565b61047f5760405162461bcd60e51b815260040180806020018281038252602c8152602001806124d1602c913960400191505060405180910390fd5b506000908152600460205260409020546001600160a01b031690565b60006104a682610be7565b9050806001600160a01b0316836001600160a01b031614156104f95760405162461bcd60e51b81526004018080602001828103825260218152602001806125556021913960400191505060405180910390fd5b806001600160a01b031661050b611219565b6001600160a01b03161480610527575061052781610373611219565b6105625760405162461bcd60e51b81526004018080602001828103825260388152602001806124246038913960400191505060405180910390fd5b61056c838361121d565b505050565b600061057d6002611298565b905090565b61059361058d611219565b826112a3565b6105ce5760405162461bcd60e51b81526004018080602001828103825260318152602001806125766031913960400191505060405180910390fd5b61056c838383611347565b6001600160a01b03821660009081526001602052604081206105fb9083611493565b90505b92915050565b6002600a54141561065c576040805162461bcd60e51b815260206004820152601f60248201527f5265656e7472616e637947756172643a207265656e7472616e742063616c6c00604482015290519081900360640190fd5b6002600a556001600160a01b0383166000908152600c602052604090205460ff166106a25760405162461bcd60e51b815260040161069990612273565b60405180910390fd5b6040516305cc1a5d60e41b81526001600160a01b03841690635cc1a5d0906106ce90859060040161232a565b60206040518083038186803b1580156106e657600080fd5b505afa1580156106fa573d6000803e3d6000fd5b505050506040513d601f19601f8201168201806040525081019061071e91906120bd565b61073a5760405162461bcd60e51b81526004016106999061222e565b3361074482610be7565b6001600160a01b03161461076a5760405162461bcd60e51b815260040161069990612202565b600080846001600160a01b031663b50e801d856040518263ffffffff1660e01b8152600401610799919061232a565b6040805180830381600087803b1580156107b257600080fd5b505af11580156107c6573d6000803e3d6000fd5b505050506040513d601f19601f820116820180604052508101906107ea919061213d565b915091506000856001600160a01b031663a73bf6df6040518163ffffffff1660e01b815260040160206040518083038186803b15801561082957600080fd5b505afa15801561083d573d6000803e3d6000fd5b505050506040513d601f19601f820116820180604052508101906108619190611e74565b90506000866001600160a01b0316634758af8a6040518163ffffffff1660e01b815260040160206040518083038186803b15801561089e57600080fd5b505afa1580156108b2573d6000803e3d6000fd5b505050506040513d601f19601f820116820180604052508101906108d69190611e74565b6000868152600d602090815260408083206001600160a01b0387168452909152902054909150610906908561149f565b6000868152600d602090815260408083206001600160a01b03878116855292528083209390935583168152205461093d908461149f565b6000958652600d602090815260408088206001600160a01b03909416885292905294209390935550506001600a55505050565b6002600a5414156109c8576040805162461bcd60e51b815260206004820152601f60248201527f5265656e7472616e637947756172643a207265656e7472616e742063616c6c00604482015290519081900360640190fd5b6002600a55336109d783610be7565b6001600160a01b0316146109fd5760405162461bcd60e51b8152600401610699906122d4565b6000828152600d602090815260408083206001600160a01b0387168452909152902054811115610a3f5760405162461bcd60e51b8152600401610699906122ff565b6000828152600d602090815260408083206001600160a01b0387168452909152902054610a6c90826114f9565b6000838152600d602090815260408083206001600160a01b038816808552925290912091909155610a9f90303384611556565b50506001600a5550565b61056c83838360405180602001604052806000815250610e90565b600080610ad26002846115b0565b509392505050565b6001610ae533610c70565b1015610b035760405162461bcd60e51b8152600401610699906122aa565b604051634904d1bf60e11b81526000906001600160a01b037f00000000000000000000000000000000000000000000000000000000000000001690639209a37e90610b58908790879087903090600401612174565b602060405180830381600087803b158015610b7257600080fd5b505af1158015610b86573d6000803e3d6000fd5b505050506040513d601f19601f82011682018060405250810190610baa9190611e74565b6001600160a01b03166000908152600c60205260409020805460ff1916600117905550505050565b600c6020526000908152604090205460ff1681565b60006105fe8260405180606001604052806029815260200161248660299139600291906115cc565b60098054604080516020601f600260001961010060018816150201909516949094049384018190048102820181019092528281526060939092909183018282801561042f5780601f106104045761010080835404028352916020019161042f565b60006001600160a01b038216610cb75760405162461bcd60e51b815260040180806020018281038252602a81526020018061245c602a913960400191505060405180910390fd5b6001600160a01b03821660009081526001602052604090206105fe90611298565b60078054604080516020601f600260001961010060018816150201909516949094049384018190048102820181019092528281526060939092909183018282801561042f5780601f106104045761010080835404028352916020019161042f565b6000818152600d602090815260408083206001600160a01b038616845290915290205461056c838383610970565b610d6f611219565b6001600160a01b0316826001600160a01b03161415610dd5576040805162461bcd60e51b815260206004820152601960248201527f4552433732313a20617070726f766520746f2063616c6c657200000000000000604482015290519081900360640190fd5b8060056000610de2611219565b6001600160a01b03908116825260208083019390935260409182016000908120918716808252919093529120805460ff191692151592909217909155610e26611219565b6001600160a01b03167f17307eab39ab6107e8899845ad3d59bd9653f200f220920489ca2b5937696c318360405180821515815260200191505060405180910390a35050565b7f000000000000000000000000000000000000000000000000000000000000000081565b610ea1610e9b611219565b836112a3565b610edc5760405162461bcd60e51b81526004018080602001828103825260318152602001806125766031913960400191505060405180910390fd5b610ee8848484846115d9565b50505050565b6060610ef98261120c565b610f345760405162461bcd60e51b815260040180806020018281038252602f815260200180612526602f913960400191505060405180910390fd5b60008281526008602090815260408083208054825160026001831615610100026000190190921691909104601f810185900485028201850190935282815292909190830182828015610fc75780601f10610f9c57610100808354040283529160200191610fc7565b820191906000526020600020905b815481529060010190602001808311610faa57829003601f168201915b505050505090506000610fd8610c0f565b9050805160001415610fec5750905061039e565b8151156110ad5780826040516020018083805190602001908083835b602083106110275780518252601f199092019160209182019101611008565b51815160209384036101000a600019018019909216911617905285519190930192850191508083835b6020831061106f5780518252601f199092019160209182019101611050565b6001836020036101000a038019825116818451168082178552505050505050905001925050506040516020818303038152906040529250505061039e565b806110b78561162b565b6040516020018083805190602001908083835b602083106110e95780518252601f1990920191602091820191016110ca565b51815160209384036101000a600019018019909216911617905285519190930192850191508083835b602083106111315780518252601f199092019160209182019101611112565b6001836020036101000a0380198251168184511680821785525050505050509050019250505060405160208183030381529060405292505050919050565b600d60209081526000928352604080842090915290825290205481565b6001600160a01b03918216600090815260056020908152604080832093909416825291909152205460ff1690565b600a81565b60006105fb8383611706565b60006111e184846001600160a01b038516611750565b90505b9392505050565b3b151590565b60606111e184846000856117e7565b60006105fb8383611942565b60006105fe600283611200565b3390565b6000818152600460205260409020805473ffffffffffffffffffffffffffffffffffffffff19166001600160a01b038416908117909155819061125f82610be7565b6001600160a01b03167f8c5be1e5ebec7d5bd14f71427d1e84f3dd0314c0f7b2291e5b200ac8c7c3b92560405160405180910390a45050565b60006105fe8261195a565b60006112ae8261120c565b6112e95760405162461bcd60e51b815260040180806020018281038252602c8152602001806123f8602c913960400191505060405180910390fd5b60006112f483610be7565b9050806001600160a01b0316846001600160a01b0316148061132f5750836001600160a01b031661132484610439565b6001600160a01b0316145b8061133f575061133f818561118c565b949350505050565b826001600160a01b031661135a82610be7565b6001600160a01b03161461139f5760405162461bcd60e51b81526004018080602001828103825260298152602001806124fd6029913960400191505060405180910390fd5b6001600160a01b0382166113e45760405162461bcd60e51b81526004018080602001828103825260248152602001806123ae6024913960400191505060405180910390fd5b6113ef83838361056c565b6113fa60008261121d565b6001600160a01b038316600090815260016020526040902061141c908261195e565b506001600160a01b038216600090815260016020526040902061143f90826111bf565b5061144c600282846111cb565b5080826001600160a01b0316846001600160a01b03167fddf252ad1be2c89b69c2b068fc378daa952ba7f163c4a11628f55a4df523b3ef60405160405180910390a4505050565b60006105fb838361196a565b6000828201838110156105fb576040805162461bcd60e51b815260206004820152601b60248201527f536166654d6174683a206164646974696f6e206f766572666c6f770000000000604482015290519081900360640190fd5b600082821115611550576040805162461bcd60e51b815260206004820152601e60248201527f536166654d6174683a207375627472616374696f6e206f766572666c6f770000604482015290519081900360640190fd5b50900390565b604080516001600160a01b0380861660248301528416604482015260648082018490528251808303909101815260849091019091526020810180516001600160e01b03166323b872dd60e01b179052610ee89085906119ce565b60008080806115bf8686611a7f565b9097909650945050505050565b60006111e1848484611afa565b6115e4848484611347565b6115f084848484611bc4565b610ee85760405162461bcd60e51b815260040180806020018281038252603281526020018061237c6032913960400191505060405180910390fd5b60608161165057506040805180820190915260018152600360fc1b602082015261039e565b8160005b811561166857600101600a82049150611654565b60008167ffffffffffffffff8111801561168157600080fd5b506040519080825280601f01601f1916602001820160405280156116ac576020820181803683370190505b50859350905060001982015b83156116fd57600a840660300160f81b828280600190039350815181106116db57fe5b60200101906001600160f81b031916908160001a905350600a840493506116b8565b50949350505050565b60006117128383611942565b611748575081546001818101845560008481526020808220909301849055845484825282860190935260409020919091556105fe565b5060006105fe565b6000828152600184016020526040812054806117b55750506040805180820182528381526020808201848152865460018181018955600089815284812095516002909302909501918255915190820155865486845281880190925292909120556111e4565b828560000160018303815481106117c857fe5b90600052602060002090600202016001018190555060009150506111e4565b6060824710156118285760405162461bcd60e51b81526004018080602001828103825260268152602001806123d26026913960400191505060405180910390fd5b611831856111eb565b611882576040805162461bcd60e51b815260206004820152601d60248201527f416464726573733a2063616c6c20746f206e6f6e2d636f6e7472616374000000604482015290519081900360640190fd5b600080866001600160a01b031685876040518082805190602001908083835b602083106118c05780518252601f1990920191602091820191016118a1565b6001836020036101000a03801982511681845116808217855250505050505090500191505060006040518083038185875af1925050503d8060008114611922576040519150601f19603f3d011682016040523d82523d6000602084013e611927565b606091505b5091509150611937828286611d2c565b979650505050505050565b60009081526001919091016020526040902054151590565b5490565b60006105fb8383611d92565b815460009082106119ac5760405162461bcd60e51b815260040180806020018281038252602281526020018061235a6022913960400191505060405180910390fd5b8260000182815481106119bb57fe5b9060005260206000200154905092915050565b6000611a23826040518060400160405280602081526020017f5361666545524332303a206c6f772d6c6576656c2063616c6c206661696c6564815250856001600160a01b03166111f19092919063ffffffff16565b80519091501561056c57808060200190516020811015611a4257600080fd5b505161056c5760405162461bcd60e51b815260040180806020018281038252602a8152602001806125a7602a913960400191505060405180910390fd5b815460009081908310611ac35760405162461bcd60e51b81526004018080602001828103825260228152602001806124af6022913960400191505060405180910390fd5b6000846000018481548110611ad457fe5b906000526020600020906002020190508060000154816001015492509250509250929050565b60008281526001840160205260408120548281611b955760405162461bcd60e51b81526004018080602001828103825283818151815260200191508051906020019080838360005b83811015611b5a578181015183820152602001611b42565b50505050905090810190601f168015611b875780820380516001836020036101000a031916815260200191505b509250505060405180910390fd5b50846000016001820381548110611ba857fe5b9060005260206000209060020201600101549150509392505050565b6000611bd8846001600160a01b03166111eb565b611be45750600161133f565b6000611cf2630a85bd0160e11b611bf9611219565b88878760405160240180856001600160a01b03168152602001846001600160a01b0316815260200183815260200180602001828103825283818151815260200191508051906020019080838360005b83811015611c60578181015183820152602001611c48565b50505050905090810190601f168015611c8d5780820380516001836020036101000a031916815260200191505b5095505050505050604051602081830303815290604052906001600160e01b0319166020820180516001600160e01b03838183161783525050505060405180606001604052806032815260200161237c603291396001600160a01b03881691906111f1565b90506000818060200190516020811015611d0b57600080fd5b50516001600160e01b031916630a85bd0160e11b1492505050949350505050565b60608315611d3b5750816111e4565b825115611d4b5782518084602001fd5b60405162461bcd60e51b8152602060048201818152845160248401528451859391928392604401919085019080838360008315611b5a578181015183820152602001611b42565b60008181526001830160205260408120548015611e4e5783546000198083019190810190600090879083908110611dc557fe5b9060005260206000200154905080876000018481548110611de257fe5b600091825260208083209091019290925582815260018981019092526040902090840190558654879080611e1257fe5b600190038181906000526020600020016000905590558660010160008781526020019081526020016000206000905560019450505050506105fe565b60009150506105fe565b600060208284031215611e69578081fd5b81356105fb81612333565b600060208284031215611e85578081fd5b81516105fb81612333565b600080600060608486031215611ea4578182fd5b8335611eaf81612333565b95602085013595506040909401359392505050565b60008060408385031215611ed6578182fd5b8235611ee181612333565b91506020830135611ef181612333565b809150509250929050565b600080600060608486031215611f10578283fd5b8335611f1b81612333565b92506020840135611f2b81612333565b9150604084013562ffffff81168114611f42578182fd5b809150509250925092565b600080600060608486031215611f61578283fd5b8335611f6c81612333565b92506020840135611f7c81612333565b929592945050506040919091013590565b60008060008060808587031215611fa2578081fd5b8435611fad81612333565b9350602085810135611fbe81612333565b935060408601359250606086013567ffffffffffffffff80821115611fe1578384fd5b818801915088601f830112611ff4578384fd5b81358181111561200057fe5b604051601f8201601f191681018501838111828210171561201d57fe5b60405281815283820185018b1015612033578586fd5b81858501868301379081019093019390935250939692955090935050565b60008060408385031215612063578182fd5b823561206e81612333565b91506020830135611ef18161234b565b60008060408385031215612090578182fd5b823561209b81612333565b946020939093013593505050565b600080600060608486031215611ea4578283fd5b6000602082840312156120ce578081fd5b81516105fb8161234b565b6000602082840312156120ea578081fd5b81356001600160e01b0319811681146105fb578182fd5b600060208284031215612112578081fd5b5035919050565b6000806040838503121561212b578182fd5b823591506020830135611ef181612333565b6000806040838503121561214f578182fd5b505080516020909101519092909150565b6001600160a01b0391909116815260200190565b6001600160a01b039485168152928416602084015262ffffff919091166040830152909116606082015260800190565b901515815260200190565b6000602080835283518082850152825b818110156121db578581018301518582016040015282016121bf565b818111156121ec5783604083870101525b50601f01601f1916929092016040019392505050565b6020808252601290820152712737ba103a34329027232a103437b63232b960711b604082015260600190565b60208082526025908201527f706f736974696f6e20697320616c726561647920636c6f736564206f722073656040820152641d1d1b195960da1b606082015260800190565b6020808252601d908201527f706f6f6c206e6f7420696e6974696174656420627920736574746c6572000000604082015260600190565b60208082526010908201526f2737ba10309027232a102437b63232b960811b604082015260600190565b6020808252601190820152702737ba1030b71027232a103437b63232b960791b604082015260600190565b6020808252601190820152704e6f206665657320617661696c61626c6560781b604082015260600190565b90815260200190565b6001600160a01b038116811461234857600080fd5b50565b801515811461234857600080fdfe456e756d657261626c655365743a20696e646578206f7574206f6620626f756e64734552433732313a207472616e7366657220746f206e6f6e20455243373231526563656976657220696d706c656d656e7465724552433732313a207472616e7366657220746f20746865207a65726f2061646472657373416464726573733a20696e73756666696369656e742062616c616e636520666f722063616c6c4552433732313a206f70657261746f7220717565727920666f72206e6f6e6578697374656e7420746f6b656e4552433732313a20617070726f76652063616c6c6572206973206e6f74206f776e6572206e6f7220617070726f76656420666f7220616c6c4552433732313a2062616c616e636520717565727920666f7220746865207a65726f20616464726573734552433732313a206f776e657220717565727920666f72206e6f6e6578697374656e7420746f6b656e456e756d657261626c654d61703a20696e646578206f7574206f6620626f756e64734552433732313a20617070726f76656420717565727920666f72206e6f6e6578697374656e7420746f6b656e4552433732313a207472616e73666572206f6620746f6b656e2074686174206973206e6f74206f776e4552433732314d657461646174613a2055524920717565727920666f72206e6f6e6578697374656e7420746f6b656e4552433732313a20617070726f76616c20746f2063757272656e74206f776e65724552433732313a207472616e736665722063616c6c6572206973206e6f74206f776e6572206e6f7220617070726f7665645361666545524332303a204552433230206f7065726174696f6e20646964206e6f742073756363656564a2646970667358221220d9c337cfd0c8a6e7031b3988658b08a43f0e948c22b16bfe6bfd5d7a9446159264736f6c634300070600334552433732313a207472616e7366657220746f206e6f6e20455243373231526563656976657220696d706c656d656e746572416464726573733a20696e73756666696369656e742062616c616e636520666f722063616c6c",
  "immutableReferences": {
    "5354": [
      {
        "length": 32,
        "start": 2845
      },
      {
        "length": 32,
        "start": 3694
      }
    ]
  },
  "source": "// SPDX-License-Identifier: MIT\r\npragma solidity 0.7.6;\r\npragma abicoder v2; \r\n\r\nimport './interfaces/IUniV3TradingPair.sol';\r\nimport './interfaces/IUnilimitFactory.sol';\r\nimport './UniV3TradingPair.sol';\r\n\r\nimport \"@openzeppelin/contracts/math/SafeMath.sol\";\r\nimport '@openzeppelin/contracts/token/ERC721/ERC721.sol';\r\nimport \"@openzeppelin/contracts/token/ERC20/SafeERC20.sol\";\r\nimport \"@openzeppelin/contracts/token/ERC20/IERC20.sol\";\r\nimport \"@openzeppelin/contracts/utils/ReentrancyGuard.sol\";\r\n\r\ncontract SettlerV1 is ERC721, ReentrancyGuard {\r\n    using SafeMath for uint256;\r\n    using SafeERC20 for IERC20;\r\n\r\n    IUnilimitFactory public immutable PairFactory;\r\n\r\n    uint256 public constant MAX_TOKENS = 10;\r\n    uint256 private _numTokens = 0;\r\n\r\n    mapping(address => bool) public supportedPairs;\r\n\r\n    mapping(uint256 => mapping(address => uint256)) public accruedFees;\r\n\r\n    constructor (\r\n        address factoryAddress\r\n    ) ERC721(\"UniLimit Settler\", \"ULS\") {\r\n        PairFactory = IUnilimitFactory(factoryAddress);\r\n        \r\n        for (uint256 i = 0; i < MAX_TOKENS; i++) {\r\n            mintSettlingRights(msg.sender);\r\n        }\r\n    }\r\n    \r\n    function deployNewPair(\r\n        address _tokenA,\r\n        address _tokenB,\r\n        uint24 _fee\r\n    ) public {\r\n        require(balanceOf(msg.sender) >= 1, \"Not a NFT Holder\");\r\n        \r\n        //create new pair\r\n        UniV3TradingPair pair = PairFactory.deployPair(_tokenA, _tokenB, _fee, address(this));\r\n\r\n        //add new pair to active pair mapping\r\n        supportedPairs[address(pair)] = true;\r\n    }\r\n\r\n    function settle(\r\n        address payable pairAddress,\r\n        uint256 positionId,\r\n        uint256 tokenId\r\n    )\r\n    public\r\n    nonReentrant\r\n    {\r\n        require(supportedPairs[pairAddress], \"pool not initiated by settler\");\r\n        require(IUniV3TradingPair(pairAddress).getActivityStatus(positionId), \"position is already closed or settled\");\r\n        require(ownerOf(tokenId) == msg.sender, \"Not the NFT holder\");\r\n\r\n        //uint256 settlerFees0;\r\n        //uint256 settlerFees1;\r\n\r\n        (uint256 settlerFees0, uint256 settlerFees1) = IUniV3TradingPair(pairAddress).settleOrder(positionId);\r\n        \r\n        address token0 = IUniV3TradingPair(pairAddress).poolToken0();\r\n        address token1 = IUniV3TradingPair(pairAddress).poolToken1();\r\n\r\n        // accrue the fees towards the token holder's token ID\r\n        accruedFees[tokenId][token0] = accruedFees[tokenId][token0].add(settlerFees0);\r\n        accruedFees[tokenId][token1] = accruedFees[tokenId][token1].add(settlerFees1);\r\n    }\r\n\r\n    function withdrawAllFees(\r\n        address assetAddress,\r\n        uint256 tokenId\r\n    )\r\n    public\r\n    {\r\n        uint256 amount = accruedFees[tokenId][assetAddress];\r\n        withdrawFees(assetAddress, tokenId, amount);\r\n    }\r\n\r\n    function withdrawFees(\r\n        address assetAddress,\r\n        uint256 tokenId,\r\n        uint256 amount\r\n    ) public nonReentrant\r\n    {\r\n        require(ownerOf(tokenId) == msg.sender, \"Not an NFT holder\");\r\n        require(accruedFees[tokenId][assetAddress] >= amount, \"No fees available\");\r\n\r\n        accruedFees[tokenId][assetAddress] = accruedFees[tokenId][assetAddress].sub(amount);\r\n\r\n        IERC20(assetAddress).safeTransferFrom(\r\n            address(this),\r\n            msg.sender,\r\n            amount\r\n        );\r\n    }\r\n\r\n    function mintSettlingRights(address minter) private {\r\n        require(_numTokens < MAX_TOKENS, \"Max supply reached\");\r\n        _safeMint(minter, _numTokens);\r\n        _numTokens++;\r\n    }\r\n}",
  "sourcePath": "C:\\Users\\LeoDu\\source\\repos\\unilimit\\contracts\\Settler.sol",
  "compiler": {
    "name": "solc",
    "version": "0.7.6+commit.7338295f.Emscripten.clang"
  },
  "schemaVersion": "3.4.10",
  "updatedAt": "2023-05-09T15:26:17.903Z",
  "devdoc": {
    "kind": "dev",
    "methods": {
      "approve(address,uint256)": {
        "details": "See {IERC721-approve}."
      },
      "balanceOf(address)": {
        "details": "See {IERC721-balanceOf}."
      },
      "baseURI()": {
        "details": "Returns the base URI set via {_setBaseURI}. This will be automatically added as a prefix in {tokenURI} to each token's URI, or to the token ID if no specific URI is set for that token ID."
      },
      "getApproved(uint256)": {
        "details": "See {IERC721-getApproved}."
      },
      "isApprovedForAll(address,address)": {
        "details": "See {IERC721-isApprovedForAll}."
      },
      "name()": {
        "details": "See {IERC721Metadata-name}."
      },
      "ownerOf(uint256)": {
        "details": "See {IERC721-ownerOf}."
      },
      "safeTransferFrom(address,address,uint256)": {
        "details": "See {IERC721-safeTransferFrom}."
      },
      "safeTransferFrom(address,address,uint256,bytes)": {
        "details": "See {IERC721-safeTransferFrom}."
      },
      "setApprovalForAll(address,bool)": {
        "details": "See {IERC721-setApprovalForAll}."
      },
      "supportsInterface(bytes4)": {
        "details": "See {IERC165-supportsInterface}. Time complexity O(1), guaranteed to always use less than 30 000 gas."
      },
      "symbol()": {
        "details": "See {IERC721Metadata-symbol}."
      },
      "tokenByIndex(uint256)": {
        "details": "See {IERC721Enumerable-tokenByIndex}."
      },
      "tokenOfOwnerByIndex(address,uint256)": {
        "details": "See {IERC721Enumerable-tokenOfOwnerByIndex}."
      },
      "tokenURI(uint256)": {
        "details": "See {IERC721Metadata-tokenURI}."
      },
      "totalSupply()": {
        "details": "See {IERC721Enumerable-totalSupply}."
      },
      "transferFrom(address,address,uint256)": {
        "details": "See {IERC721-transferFrom}."
      }
    },
    "version": 1
  },
  "userdoc": {
    "kind": "user",
    "methods": {},
    "version": 1
  }
}