{
  "contractName": "UnilimitFactory",
  "abi": [
    {
      "inputs": [
        {
          "internalType": "address",
          "name": "_nftManager",
          "type": "address"
        },
        {
          "internalType": "address",
          "name": "_WETH9",
          "type": "address"
        },
        {
          "internalType": "address",
          "name": "_uniswapV3FactoryAddress",
          "type": "address"
        }
      ],
      "stateMutability": "nonpayable",
      "type": "constructor"
    },
    {
      "inputs": [],
      "name": "WETH9",
      "outputs": [
        {
          "internalType": "address",
          "name": "",
          "type": "address"
        }
      ],
      "stateMutability": "view",
      "type": "function",
      "constant": true
    },
    {
      "inputs": [],
      "name": "nftManager",
      "outputs": [
        {
          "internalType": "address",
          "name": "",
          "type": "address"
        }
      ],
      "stateMutability": "view",
      "type": "function",
      "constant": true
    },
    {
      "inputs": [],
      "name": "uniswapV3Factory",
      "outputs": [
        {
          "internalType": "contract IUniswapV3Factory",
          "name": "",
          "type": "address"
        }
      ],
      "stateMutability": "view",
      "type": "function",
      "constant": true
    },
    {
      "inputs": [
        {
          "internalType": "address",
          "name": "tokenA",
          "type": "address"
        },
        {
          "internalType": "address",
          "name": "tokenB",
          "type": "address"
        },
        {
          "internalType": "uint24",
          "name": "fee",
          "type": "uint24"
        },
        {
          "internalType": "address",
          "name": "settlerAddress",
          "type": "address"
        }
      ],
      "name": "deployPair",
      "outputs": [
        {
          "internalType": "contract UniV3TradingPair",
          "name": "newPair",
          "type": "address"
        }
      ],
      "stateMutability": "nonpayable",
      "type": "function"
    }
  ],
  "bytecode": "0x60e060405234801561001057600080fd5b506040516146a93803806146a983398101604081905261002f91610072565b6001600160601b0319606093841b811660805291831b821660a05290911b1660c0526100b4565b80516001600160a01b038116811461006d57600080fd5b919050565b600080600060608486031215610086578283fd5b61008f84610056565b925061009d60208501610056565b91506100ab60408501610056565b90509250925092565b60805160601c60a05160601c60c05160601c6145b46100f56000398060b8528060df525080609452806101fb5250806101d9528061025c52506145b46000f3fe608060405234801561001057600080fd5b506004361061004c5760003560e01c80634aa4a4fc146100515780635b5491821461006f5780639209a37e14610077578063e88b91ea1461008a575b600080fd5b610059610092565b6040516100669190610310565b60405180910390f35b6100596100b6565b6100596100853660046102ae565b6100da565b61005961025a565b7f000000000000000000000000000000000000000000000000000000000000000081565b7f000000000000000000000000000000000000000000000000000000000000000081565b6000807f00000000000000000000000000000000000000000000000000000000000000006001600160a01b0316631698ee828787876040518463ffffffff1660e01b815260040161012d9392919061034f565b60206040518083038186803b15801561014557600080fd5b505afa158015610159573d6000803e3d6000fd5b505050506040513d601f19601f8201168201806040525081019061017d919061028b565b90506001600160a01b0381166101ae5760405162461bcd60e51b81526004016101a5906103ae565b60405180910390fd5b336001600160a01b038416146101d65760405162461bcd60e51b81526004016101a590610377565b807f0000000000000000000000000000000000000000000000000000000000000000847f00000000000000000000000000000000000000000000000000000000000000006040516102269061027e565b6102339493929190610324565b604051809103906000f08015801561024f573d6000803e3d6000fd5b509695505050505050565b7f000000000000000000000000000000000000000000000000000000000000000081565b6141678061041883390190565b60006020828403121561029c578081fd5b81516102a7816103ff565b9392505050565b600080600080608085870312156102c3578283fd5b84356102ce816103ff565b935060208501356102de816103ff565b9250604085013562ffffff811681146102f5578283fd5b91506060850135610305816103ff565b939692955090935050565b6001600160a01b0391909116815260200190565b6001600160a01b03948516815292841660208401529083166040830152909116606082015260800190565b6001600160a01b03938416815291909216602082015262ffffff909116604082015260600190565b6020808252601a908201527f736574746c6572206e6565647320746f2062652073656e646572000000000000604082015260600190565b60208082526031908201527f4e6f20636f72726573706f6e64696e6720706f6f6c20666f7220746f6b656e2060408201527013103332b29031b7b6b134b730ba34b7b760791b606082015260800190565b6001600160a01b038116811461041457600080fd5b5056fe6101806040523480156200001257600080fd5b50604051620041673803806200416783398101604081905262000035916200026f565b60016000556001600160601b0319606085811b82166101605284901b1660e08190526101405260408051630dfe168160e01b815290516001600160a01b03861691630dfe1681916004808301926020929190829003018186803b1580156200009c57600080fd5b505afa158015620000b1573d6000803e3d6000fd5b505050506040513d601f19601f82011682018060405250810190620000d791906200024b565b6001600160a01b03166080816001600160a01b031660601b81525050836001600160a01b031663d21220a76040518163ffffffff1660e01b815260040160206040518083038186803b1580156200012d57600080fd5b505afa15801562000142573d6000803e3d6000fd5b505050506040513d601f19601f820116820180604052508101906200016891906200024b565b6001600160a01b031660a0816001600160a01b031660601b81525050836001600160a01b031663ddca3f436040518163ffffffff1660e01b815260040160206040518083038186803b158015620001be57600080fd5b505afa158015620001d3573d6000803e3d6000fd5b505050506040513d601f19601f82011682018060405250810190620001f99190620002cb565b60e81b6001600160e81b03191660c052606091821b6001600160601b031990811661012052911b166101005250620002f09050565b80516001600160a01b03811681146200024657600080fd5b919050565b6000602082840312156200025d578081fd5b62000268826200022e565b9392505050565b6000806000806080858703121562000285578283fd5b62000290856200022e565b9350620002a0602086016200022e565b9250620002b0604086016200022e565b9150620002c0606086016200022e565b905092959194509250565b600060208284031215620002dd578081fd5b815162ffffff8116811462000268578182fd5b60805160601c60a05160601c60c05160e81c60e05160601c6101005160601c6101205160601c6101405160601c6101605160601c613d3e62000429600039806108855280610ccd5280611c3a528061230f5250806108c1528061128e5280611353528061146c52806119ae52806120525280612208528061242252806127d252806128c6525080610f595280610fd45280611d305280611d8a52508061056b528061097f5280610af35280610b6352806115fd52806117a65250806111e45250806111c052806124bb52508061095b5280610ac952806113c852806117d05280611815528061191f528061197d5280611d68528061248c528061261d525080610aa35280610f3552806113a25280611627528061166c528061177552806119575280611d0e528061245d52806125dc5250613d3e6000f3fe6080604052600436106101745760003560e01c8063885a08e0116100d6578063c41a360a1161007f578063d836e86c11610059578063d836e86c146103fd578063e88b91ea1461041d578063f9a1f17f146104325761017b565b8063c41a360a146103a6578063c57981b5146103c6578063d5aa93c8146103e85761017b565b8063a73bf6df116100b0578063a73bf6df1461034e578063ab221a7614610363578063b50e801d146103785761017b565b8063885a08e0146102f95780639859f8051461030e5780639ce288cb1461032e5761017b565b80634758af8a116101385780635ebd9ded116101125780635ebd9ded1461028c578063623efcbe146102b957806386991a1d146102cc5761017b565b80634758af8a146102355780634aa4a4fc1461024a5780635cc1a5d01461025f5761017b565b806304f8fe9b1461017d5780630965182714610190578063150b7a02146101b057806316f0115b146101e65780631efeed33146102085761017b565b3661017b57005b005b61017b61018b3660046135a9565b610452565b34801561019c57600080fd5b5061017b6101ab36600461353e565b6106df565b3480156101bc57600080fd5b506101d06101cb366004613383565b610872565b6040516101dd919061374c565b60405180910390f35b3480156101f257600080fd5b506101fb610883565b6040516101dd91906136ec565b34801561021457600080fd5b5061022861022336600461353e565b6108a7565b6040516101dd9190613c13565b34801561024157600080fd5b506101fb610959565b34801561025657600080fd5b506101fb61097d565b34801561026b57600080fd5b5061027f61027a36600461353e565b6109a1565b6040516101dd9190613724565b34801561029857600080fd5b506102ac6102a736600461353e565b6109c0565b6040516101dd9190613c37565b6102ac6102c736600461341d565b6109d6565b3480156102d857600080fd5b506102ec6102e736600461353e565b610cab565b6040516101dd9190613761565b34801561030557600080fd5b506101fb610cc8565b34801561031a57600080fd5b5061017b6103293660046135a9565b610d69565b34801561033a57600080fd5b506102ec61034936600461353e565b610f19565b34801561035a57600080fd5b506101fb610f33565b34801561036f57600080fd5b506101fb610f57565b34801561038457600080fd5b5061039861039336600461353e565b610f7b565b6040516101dd929190613c64565b3480156103b257600080fd5b506101fb6103c136600461353e565b6111a0565b3480156103d257600080fd5b506103db6111be565b6040516101dd9190613c27565b3480156103f457600080fd5b506101fb6111e2565b34801561040957600080fd5b5061017b61041836600461353e565b611206565b34801561042957600080fd5b506101fb611351565b34801561043e57600080fd5b5061027f61044d36600461353e565b611375565b60026000541415610498576040805162461bcd60e51b815260206004820152601f6024820152600080516020613c99833981519152604482015290519081900360640190fd5b60026000908155828152600160205260409020600301546001600160a01b031633146104df5760405162461bcd60e51b81526004016104d69061387c565b60405180910390fd5b600082815260016020526040902060030154600160a01b900460ff166105175760405162461bcd60e51b81526004016104d6906137e0565b600081116105375760405162461bcd60e51b81526004016104d690613905565b60006105428361138a565b90503415610613578134146105695760405162461bcd60e51b81526004016104d69061399a565b7f00000000000000000000000000000000000000000000000000000000000000006001600160a01b0316816001600160a01b0316146105ba5760405162461bcd60e51b81526004016104d690613947565b806001600160a01b031663d0e30db0346040518263ffffffff1660e01b81526004016000604051808303818588803b1580156105f557600080fd5b505af1158015610609573d6000803e3d6000fd5b50505050506106cb565b6040516370a0823160e01b81526000906001600160a01b038316906370a08231906106429033906004016136ec565b60206040518083038186803b15801561065a57600080fd5b505afa15801561066e573d6000803e3d6000fd5b505050506040513d601f19601f820116820180604052508101906106929190613556565b9050828110156106b45760405162461bcd60e51b81526004016104d6906138ce565b6106c96001600160a01b0383163330866113f0565b505b6106d58383611450565b5050600160005550565b60026000541415610725576040805162461bcd60e51b815260206004820152601f6024820152600080516020613c99833981519152604482015290519081900360640190fd5b60026000908155818152600160205260409020600301546001600160a01b031633146107635760405162461bcd60e51b81526004016104d690613a7e565b600081815260016020526040902060030154600160a01b900460ff1661079b5760405162461bcd60e51b81526004016104d69061397e565b6000806107a783611594565b60008781526001602081905260408220015590945092506107cb91508490506108a7565b600084815260016020526040902060020180546001600160801b0319166001600160801b03929092169190911790556108058282856115f5565b60008381526001602052604090819020600301805460ff60a01b19811690915590516001600160a01b03909116907f26d1fa917138519416740f37e0bf77f4cd0892b58e3752603f758f35f0c45a2e90610860908690613c37565b60405180910390a25050600160005550565b630a85bd0160e11b95945050505050565b7f000000000000000000000000000000000000000000000000000000000000000081565b60405163133f757160e31b81526000906001600160a01b037f000000000000000000000000000000000000000000000000000000000000000016906399fbab88906108f6908590600401613c37565b6101806040518083038186803b15801561090f57600080fd5b505afa158015610923573d6000803e3d6000fd5b505050506040513d601f19601f8201168201806040525081019061094791906135ed565b50929c9b505050505050505050505050565b7f000000000000000000000000000000000000000000000000000000000000000081565b7f000000000000000000000000000000000000000000000000000000000000000081565b600090815260016020526040902060030154600160a01b900460ff1690565b6000908152600160208190526040909120015490565b600060026000541415610a1e576040805162461bcd60e51b815260206004820152601f6024820152600080516020613c99833981519152604482015290519081900360640190fd5b60026000556401000276a36001600160a01b03841610801590610a5e575073fffd8963efd1fc6a506488495d951d5263988d266001600160a01b03841611155b610a7a5760405162461bcd60e51b81526004016104d690613a57565b60008211610a9a5760405162461bcd60e51b81526004016104d690613905565b600084610ac7577f0000000000000000000000000000000000000000000000000000000000000000610ae9565b7f00000000000000000000000000000000000000000000000000000000000000005b90503415610bda577f00000000000000000000000000000000000000000000000000000000000000006001600160a01b0316816001600160a01b031614610b425760405162461bcd60e51b81526004016104d690613a15565b823414610b615760405162461bcd60e51b81526004016104d69061399a565b7f00000000000000000000000000000000000000000000000000000000000000006001600160a01b031663d0e30db0346040518263ffffffff1660e01b81526004016000604051808303818588803b158015610bbc57600080fd5b505af1158015610bd0573d6000803e3d6000fd5b5050505050610c92565b6040516370a0823160e01b81526000906001600160a01b038316906370a0823190610c099033906004016136ec565b60206040518083038186803b158015610c2157600080fd5b505afa158015610c35573d6000803e3d6000fd5b505050506040513d601f19601f82011682018060405250810190610c599190613556565b905083811015610c7b5760405162461bcd60e51b81526004016104d6906138ce565b610c906001600160a01b0383163330876113f0565b505b610c9d85858561194d565b505060016000559392505050565b600090815260016020526040902054640100000000900460020b90565b6000807f00000000000000000000000000000000000000000000000000000000000000006001600160a01b0316633850c7bd6040518163ffffffff1660e01b815260040160e06040518083038186803b158015610d2457600080fd5b505afa158015610d38573d6000803e3d6000fd5b505050506040513d601f19601f82011682018060405250810190610d5c91906134ab565b5094965050505050505090565b60026000541415610daf576040805162461bcd60e51b815260206004820152601f6024820152600080516020613c99833981519152604482015290519081900360640190fd5b60026000908155828152600160205260409020600301546001600160a01b03163314610ded5760405162461bcd60e51b81526004016104d690613a7e565b60008281526001602081905260409091200154811115610e1f5760405162461bcd60e51b81526004016104d69061376f565b600082815260016020526040902060030154600160a01b900460ff16610e575760405162461bcd60e51b81526004016104d69061397e565b600080610e648484611b9b565b9094509250610e78915083905082866115f5565b6000610e83856108a7565b60008681526001602081905260409182902090810180548688019003908190556002820180546001600160801b0319166001600160801b03861617905560039091015491519293506001600160a01b03909116917f4291de1e1b5e9546232e372e1ba908c42d8cdd588d63e533327fdf83b4aee7e191610f0591899190613c64565b60405180910390a250506001600055505050565b600090815260016020526040902054610100900460020b90565b7f000000000000000000000000000000000000000000000000000000000000000081565b7f000000000000000000000000000000000000000000000000000000000000000081565b60008060026000541415610fc4576040805162461bcd60e51b815260206004820152601f6024820152600080516020613c99833981519152604482015290519081900360640190fd5b6002600055336001600160a01b037f000000000000000000000000000000000000000000000000000000000000000016146110115760405162461bcd60e51b81526004016104d6906139d1565b600061101b611c36565b60008581526001602052604090205490915060ff1661105c576000848152600160205260409020546401000000009004600290810b810b9082900b1361107d565b6000848152600160205260409020546101009004600290810b810b9082900b125b6110995760405162461bcd60e51b81526004016104d69061385f565b600084815260016020526040902060030154600160a01b900460ff166110d15760405162461bcd60e51b81526004016104d69061397e565b6000806000806110e088611594565b929650909450925090506110f78885858585611cd5565b60008a8152600160205260408120600301805460ff60a01b191690559198509650611123898686611db9565b60008a81526001602081905260409182902060038101548154919092015492519394506001600160a01b03909116927f7e953f96ae54ab2378a31227b9077cac6e9fa627cb10e333065cb7883c1df776926111859260ff16918e91879161372f565b60405180910390a25050505050506001600081905550915091565b6000908152600160205260409020600301546001600160a01b031690565b7f000000000000000000000000000000000000000000000000000000000000000081565b7f000000000000000000000000000000000000000000000000000000000000000081565b6000818152600160205260409020600301546001600160a01b0316331461123f5760405162461bcd60e51b81526004016104d69061387c565b600081815260016020526040902060030154600160a01b900460ff166112775760405162461bcd60e51b81526004016104d69061383b565b604051632142170760e11b81526001600160a01b037f000000000000000000000000000000000000000000000000000000000000000016906342842e0e906112c790309033908690600401613700565b600060405180830381600087803b1580156112e157600080fd5b505af11580156112f5573d6000803e3d6000fd5b5050506000918252506001602081905260408220805466ffffffffffffff19168155908101919091556002810180546001600160801b0319169055600301805474ffffffffffffffffffffffffffffffffffffffffff19169055565b7f000000000000000000000000000000000000000000000000000000000000000081565b60009081526001602052604090205460ff1690565b60008181526001602052604081205460ff166113c6577f00000000000000000000000000000000000000000000000000000000000000006113e8565b7f00000000000000000000000000000000000000000000000000000000000000005b90505b919050565b604080516001600160a01b0380861660248301528416604482015260648082018490528251808303909101815260849091019091526020810180516001600160e01b03166323b872dd60e01b17905261144a908590611e17565b50505050565b600061145b8361138a565b90506114916001600160a01b0382167f000000000000000000000000000000000000000000000000000000000000000084611ec8565b60008060006114a08686611fb3565b919450925090506001600160801b038316158015906114c3575081151581151514155b6114df5760405162461bcd60e51b81526004016104d6906137a9565b6114e9828261215e565b6000878152600160208190526040909120018054909101905561150b866108a7565b6000878152600160208190526040918290206002810180546001600160801b0319166001600160801b039590951694909417909355600383015492015490516001600160a01b03909216917f4291de1e1b5e9546232e372e1ba908c42d8cdd588d63e533327fdf83b4aee7e191611584918a9190613c64565b60405180910390a2505050505050565b60008060008060006115a5866108a7565b90506000816001600160801b0316116115d05760405162461bcd60e51b81526004016104d6906138a3565b6115da86826121bf565b90955093506115e886612297565b9597949650949392505050565b821561179e577f00000000000000000000000000000000000000000000000000000000000000006001600160a01b03167f00000000000000000000000000000000000000000000000000000000000000006001600160a01b0316141561175557604051632e1a7d4d60e01b81526001600160a01b037f00000000000000000000000000000000000000000000000000000000000000001690632e1a7d4d906116a1908690600401613c37565b600060405180830381600087803b1580156116bb57600080fd5b505af11580156116cf573d6000803e3d6000fd5b505050506000336001600160a01b0316846040516116ec906136e9565b60006040518083038185875af1925050503d8060008114611729576040519150601f19603f3d011682016040523d82523d6000602084013e61172e565b606091505b505090508061174f5760405162461bcd60e51b81526004016104d690613804565b5061179e565b60008181526001602052604090206003015461179e906001600160a01b037f000000000000000000000000000000000000000000000000000000000000000081169116856122b6565b81156118ff577f00000000000000000000000000000000000000000000000000000000000000006001600160a01b03167f00000000000000000000000000000000000000000000000000000000000000006001600160a01b031614156118fa57604051632e1a7d4d60e01b81526001600160a01b037f00000000000000000000000000000000000000000000000000000000000000001690632e1a7d4d9061184a908590600401613c37565b600060405180830381600087803b15801561186457600080fd5b505af1158015611878573d6000803e3d6000fd5b505050506000336001600160a01b031683604051611895906136e9565b60006040518083038185875af1925050503d80600081146118d2576040519150601f19603f3d011682016040523d82523d6000602084013e6118d7565b606091505b50509050806118f85760405162461bcd60e51b81526004016104d690613804565b505b611948565b600081815260016020526040902060030154611948906001600160a01b037f000000000000000000000000000000000000000000000000000000000000000081169116846122b6565b505050565b6000808461197b577f000000000000000000000000000000000000000000000000000000000000000061199d565b7f00000000000000000000000000000000000000000000000000000000000000005b90506119d36001600160a01b0382167f000000000000000000000000000000000000000000000000000000000000000085611ec8565b6000806119e08787612308565b92509050600080806119f48a85878b6123f6565b6040805160e0810182528f1515815260028a810b60208301528b900b91810191909152939a509195509350915060608101611a2f848461215e565b81526001600160801b038581166020808401919091523360408085018290526001606095860181905260008e815281855282902087518154958901519389015160ff199096169015151763ffffff001916610100600294850b62ffffff908116919091029190911766ffffff00000000191664010000000096850b91909116959095029490941784559486015194830194909455608085015193820180546001600160801b031916949093169390931790915560a08301516003909101805460c09094015173ffffffffffffffffffffffffffffffffffffffff199094166001600160a01b039092169190911760ff60a01b1916600160a01b93151593909302929092179091557f6c40f5ef74fd79b0dad7fa3da61f0a6a8ef8bf63b75eae10782c62baa2baf1bb888c611b63888a612653565b60008c81526001602081905260409182902001549051611b869493929190613c40565b60405180910390a25050505050509392505050565b6000806000806000611bad8787612685565b90506000816001600160801b031611611bd85760405162461bcd60e51b81526004016104d6906138a3565b611be1876108a7565b6001600160801b0316816001600160801b03161115611c125760405162461bcd60e51b81526004016104d69061376f565b611c1c87826121bf565b9095509350611c2a87612297565b95989497509550505050565b60007f00000000000000000000000000000000000000000000000000000000000000006001600160a01b0316633850c7bd6040518163ffffffff1660e01b815260040160e06040518083038186803b158015611c9157600080fd5b505afa158015611ca5573d6000803e3d6000fd5b505050506040513d601f19601f82011682018060405250810190611cc991906134ab565b50939695505050505050565b600080611ce284876126fa565b9150611cee83866126fa565b9050611cfb8686896115f5565b8115611d5557611d556001600160a01b037f0000000000000000000000000000000000000000000000000000000000000000167f0000000000000000000000000000000000000000000000000000000000000000846122b6565b8015611daf57611daf6001600160a01b037f0000000000000000000000000000000000000000000000000000000000000000167f0000000000000000000000000000000000000000000000000000000000000000836122b6565b9550959350505050565b60008381526001602052604081205460ff16611df15760008481526001602081905260409091200154611dec9083612757565b611e0f565b60008481526001602081905260409091200154611e0f908490612757565b949350505050565b6000611e6c826040518060400160405280602081526020017f5361666545524332303a206c6f772d6c6576656c2063616c6c206661696c6564815250856001600160a01b03166127be9092919063ffffffff16565b80519091501561194857808060200190516020811015611e8b57600080fd5b50516119485760405162461bcd60e51b815260040180806020018281038252602a815260200180613cdf602a913960400191505060405180910390fd5b6000611f5e82856001600160a01b031663dd62ed3e30876040518363ffffffff1660e01b815260040180836001600160a01b03168152602001826001600160a01b031681526020019250505060206040518083038186803b158015611f2c57600080fd5b505afa158015611f40573d6000803e3d6000fd5b505050506040513d6020811015611f5657600080fd5b50519061215e565b604080516001600160a01b038616602482015260448082018490528251808303909101815260649091019091526020810180516001600160e01b031663095ea7b360e01b17905290915061144a908590611e17565b6000806000806000611fc4876127cd565b915091506000611fd2611c36565b90508060020b8260020b14158015611ff057508060020b8360020b14155b61200c5760405162461bcd60e51b81526004016104d69061378c565b60008881526001602052604081205460ff16612028578761202b565b60005b60008a8152600160205260408120549192509060ff1661204c57600061204e565b885b90507f00000000000000000000000000000000000000000000000000000000000000006001600160a01b031663219f5d176040518060c001604052808d81526020018581526020018481526020016120ba6120b360c88861275790919063ffffffff16565b87906126fa565b81526020016120d46120cd8660c8612757565b86906126fa565b8152602001428152506040518263ffffffff1660e01b81526004016120f99190613b21565b606060405180830381600087803b15801561211357600080fd5b505af1158015612127573d6000803e3d6000fd5b505050506040513d601f19601f8201168201806040525081019061214b9190613477565b919c909b50909950975050505050505050565b6000828201838110156121b8576040805162461bcd60e51b815260206004820152601b60248201527f536166654d6174683a206164646974696f6e206f766572666c6f770000000000604482015290519081900360640190fd5b9392505050565b6040805160a0810182528381526001600160801b03831660208201526000818301819052606082018190524260808301529151630624e65f60e11b815282916001600160a01b037f00000000000000000000000000000000000000000000000000000000000000001691630c49ccbe9161223b91600401613ade565b6040805180830381600087803b15801561225457600080fd5b505af1158015612268573d6000803e3d6000fd5b505050506040513d601f19601f8201168201806040525081019061228c91906135ca565b909590945092505050565b6000806122ac6001600160801b038085612882565b9094909350915050565b604080516001600160a01b038416602482015260448082018490528251808303909101815260649091019091526020810180516001600160e01b031663a9059cbb60e01b179052611948908490611e17565b60008060007f00000000000000000000000000000000000000000000000000000000000000006001600160a01b031663d0c93a7c6040518163ffffffff1660e01b815260040160206040518083038186803b15801561236657600080fd5b505afa15801561237a573d6000803e3d6000fd5b505050506040513d601f19601f8201168201806040525081019061239e919061345d565b905060006123ab85612957565b905085156123d1578160020b8160020b816123c257fe5b078103925081830393506123ed565b818260020b8260020b816123e157fe5b07820301935081840192505b50509250929050565b600080600080600088612409578561240c565b60005b905060008961241c57600061241e565b865b90507f00000000000000000000000000000000000000000000000000000000000000006001600160a01b031663883164566040518061016001604052807f00000000000000000000000000000000000000000000000000000000000000006001600160a01b031681526020017f00000000000000000000000000000000000000000000000000000000000000006001600160a01b031681526020017f000000000000000000000000000000000000000000000000000000000000000062ffffff1681526020018c60020b81526020018b60020b815260200185815260200184815260200161252061251960c88a61275790919063ffffffff16565b89906126fa565b815260200161253a6125338860c8612757565b88906126fa565b815230602082015242604091820152516001600160e01b031960e084901b1681526125689190600401613b65565b608060405180830381600087803b15801561258257600080fd5b505af1158015612596573d6000803e3d6000fd5b505050506040513d601f19601f820116820180604052508101906125ba919061356e565b9298509096509450925083821115612605578382036126036001600160a01b037f00000000000000000000000000000000000000000000000000000000000000001633836122b6565b505b82811115612646578281036126446001600160a01b037f00000000000000000000000000000000000000000000000000000000000000001633836122b6565b505b5050945094509450949050565b60008061265f84612c83565b9050600061266c84612c83565b600292016001600160a01b031691909104949350505050565b6000806000612693856127cd565b6000878152600160205260408120549294509092509060ff16156126d3576126cc6126bd84612fb5565b6126c684612fb5565b87612fc0565b90506126f1565b6126ee6126df84612fb5565b6126e884612fb5565b87613002565b90505b95945050505050565b600082821115612751576040805162461bcd60e51b815260206004820152601e60248201527f536166654d6174683a207375627472616374696f6e206f766572666c6f770000604482015290519081900360640190fd5b50900390565b60008082116127ad576040805162461bcd60e51b815260206004820152601a60248201527f536166654d6174683a206469766973696f6e206279207a65726f000000000000604482015290519081900360640190fd5b8183816127b657fe5b049392505050565b6060611e0f8484600085613060565b6000807f00000000000000000000000000000000000000000000000000000000000000006001600160a01b03166399fbab88846040518263ffffffff1660e01b815260040161281c9190613c37565b6101806040518083038186803b15801561283557600080fd5b505afa158015612849573d6000803e3d6000fd5b505050506040513d601f19601f8201168201806040525081019061286d91906135ed565b50949d939c50929a5050505050505050505050565b604080516080810182528281523060208201526001600160801b038086168284015284166060820152905163fc6f786560e01b815260009182916001600160a01b037f0000000000000000000000000000000000000000000000000000000000000000169163fc6f7865916128fa9190600401613a9b565b6040805180830381600087803b15801561291357600080fd5b505af1158015612927573d6000803e3d6000fd5b505050506040513d601f19601f8201168201806040525081019061294b91906135ca565b90969095509350505050565b60006401000276a36001600160a01b03831610801590612993575073fffd8963efd1fc6a506488495d951d5263988d266001600160a01b038316105b6129c8576040805162461bcd60e51b81526020600482015260016024820152602960f91b604482015290519081900360640190fd5b77ffffffffffffffffffffffffffffffffffffffff00000000602083901b166001600160801b03811160071b81811c67ffffffffffffffff811160061b90811c63ffffffff811160051b90811c61ffff811160041b90811c60ff8111600390811b91821c600f811160021b90811c918211600190811b92831c97908811961790941790921717909117171760808110612a6957607f810383901c9150612a73565b80607f0383901b91505b908002607f81811c60ff83811c9190911c800280831c81831c1c800280841c81841c1c800280851c81851c1c800280861c81861c1c800280871c81871c1c800280881c81881c1c800280891c81891c1c8002808a1c818a1c1c8002808b1c818b1c1c8002808c1c818c1c1c8002808d1c818d1c1c8002808e1c9c81901c9c909c1c80029c8d901c9e9d607f198f0160401b60c09190911c678000000000000000161760c19b909b1c674000000000000000169a909a1760c29990991c672000000000000000169890981760c39790971c671000000000000000169690961760c49590951c670800000000000000169490941760c59390931c670400000000000000169290921760c69190911c670200000000000000161760c79190911c670100000000000000161760c89190911c6680000000000000161760c99190911c6640000000000000161760ca9190911c6620000000000000161760cb9190911c6610000000000000161760cc9190911c6608000000000000161760cd9190911c66040000000000001617693627a301d71055774c8581026f028f6481ab7f045a5af012a19d003aa9198101608090811d906fdb2df09e81959a81455e260799a0632f8301901d600281810b9083900b14612c7457886001600160a01b0316612c5882612c83565b6001600160a01b03161115612c6d5781612c6f565b805b612c76565b815b9998505050505050505050565b60008060008360020b12612c9a578260020b612ca2565b8260020b6000035b9050620d89e8811115612ce0576040805162461bcd60e51b81526020600482015260016024820152601560fa1b604482015290519081900360640190fd5b600060018216612cf457600160801b612d06565b6ffffcb933bd6fad37aa2d162d1a5940015b70ffffffffffffffffffffffffffffffffff1690506002821615612d3a576ffff97272373d413259a46990580e213a0260801c5b6004821615612d59576ffff2e50f5f656932ef12357cf3c7fdcc0260801c5b6008821615612d78576fffe5caca7e10e4e61c3624eaa0941cd00260801c5b6010821615612d97576fffcb9843d60f6159c9db58835c9266440260801c5b6020821615612db6576fff973b41fa98c081472e6896dfb254c00260801c5b6040821615612dd5576fff2ea16466c96a3843ec78b326b528610260801c5b6080821615612df4576ffe5dee046a99a2a811c461f1969c30530260801c5b610100821615612e14576ffcbe86c7900a88aedcffc83b479aa3a40260801c5b610200821615612e34576ff987a7253ac413176f2b074cf7815e540260801c5b610400821615612e54576ff3392b0822b70005940c7a398e4b70f30260801c5b610800821615612e74576fe7159475a2c29b7443b29c7fa6e889d90260801c5b611000821615612e94576fd097f3bdfd2022b8845ad8f792aa58250260801c5b612000821615612eb4576fa9f746462d870fdf8a65dc1f90e061e50260801c5b614000821615612ed4576f70d869a156d2a1b890bb3df62baf32f70260801c5b618000821615612ef4576f31be135f97d08fd981231505542fcfa60260801c5b62010000821615612f15576f09aa508b5b7a84e1c677de54f3e99bc90260801c5b62020000821615612f35576e5d6af8dedb81196699c329225ee6040260801c5b62040000821615612f54576d2216e584f5fa1ea926041bedfe980260801c5b62080000821615612f71576b048a170391f7dc42444e8fa20260801c5b60008460020b1315612f8c578060001981612f8857fe5b0490505b640100000000810615612fa0576001612fa3565b60005b60ff16602082901c0192505050919050565b60006113e882612c83565b6000826001600160a01b0316846001600160a01b03161115612fe0579192915b611e0f612ffd83600160601b8787036001600160a01b03166131bb565b61326a565b6000826001600160a01b0316846001600160a01b03161115613022579192915b6000613045856001600160a01b0316856001600160a01b0316600160601b6131bb565b90506126f1612ffd84838888036001600160a01b03166131bb565b6060824710156130a15760405162461bcd60e51b8152600401808060200182810382526026815260200180613cb96026913960400191505060405180910390fd5b6130aa85613280565b6130fb576040805162461bcd60e51b815260206004820152601d60248201527f416464726573733a2063616c6c20746f206e6f6e2d636f6e7472616374000000604482015290519081900360640190fd5b600080866001600160a01b031685876040518082805190602001908083835b602083106131395780518252601f19909201916020918201910161311a565b6001836020036101000a03801982511681845116808217855250505050505090500191505060006040518083038185875af1925050503d806000811461319b576040519150601f19603f3d011682016040523d82523d6000602084013e6131a0565b606091505b50915091506131b0828286613286565b979650505050505050565b60008080600019858709868602925082811090839003039050806131f157600084116131e657600080fd5b5082900490506121b8565b8084116131fd57600080fd5b6000848688096000868103871696879004966002600389028118808a02820302808a02820302808a02820302808a02820302808a02820302808a02909103029181900381900460010186841190950394909402919094039290920491909117919091029150509392505050565b806001600160801b03811681146113eb57600080fd5b3b151590565b606083156132955750816121b8565b8251156132a55782518084602001fd5b8160405162461bcd60e51b81526004018080602001828103825283818151815260200191508051906020019080838360005b838110156132ef5781810151838201526020016132d7565b50505050905090810190601f16801561331c5780820380516001836020036101000a031916815260200191505b509250505060405180910390fd5b80516113eb81613c72565b8051600281900b81146113eb57600080fd5b80516001600160801b03811681146113eb57600080fd5b805161ffff811681146113eb57600080fd5b805162ffffff811681146113eb57600080fd5b60008060008060006080868803121561339a578081fd5b85356133a581613c72565b945060208601356133b581613c72565b935060408601359250606086013567ffffffffffffffff808211156133d8578283fd5b818801915088601f8301126133eb578283fd5b8135818111156133f9578384fd5b89602082850101111561340a578384fd5b9699959850939650602001949392505050565b600080600060608486031215613431578283fd5b833561343c81613c8a565b9250602084013561344c81613c72565b929592945050506040919091013590565b60006020828403121561346e578081fd5b6121b882613335565b60008060006060848603121561348b578283fd5b61349484613347565b925060208401519150604084015190509250925092565b600080600080600080600060e0888a0312156134c5578182fd5b87516134d081613c72565b96506134de60208901613335565b95506134ec6040890161335e565b94506134fa6060890161335e565b93506135086080890161335e565b925060a088015160ff8116811461351d578283fd5b60c089015190925061352e81613c8a565b8091505092959891949750929550565b60006020828403121561354f578081fd5b5035919050565b600060208284031215613567578081fd5b5051919050565b60008060008060808587031215613583578384fd5b8451935061359360208601613347565b6040860151606090960151949790965092505050565b600080604083850312156135bb578182fd5b50508035926020909101359150565b600080604083850312156135dc578182fd5b505080516020909101519092909150565b6000806000806000806000806000806000806101808d8f03121561360f578586fd5b8c516bffffffffffffffffffffffff8116811461362a578687fd5b9b5061363860208e0161332a565b9a5061364660408e0161332a565b995061365460608e0161332a565b985061366260808e01613370565b975061367060a08e01613335565b965061367e60c08e01613335565b955061368c60e08e01613347565b94506101008d015193506101208d015192506136ab6101408e01613347565b91506136ba6101608e01613347565b90509295989b509295989b509295989b565b6001600160a01b03169052565b60020b9052565b62ffffff169052565b90565b6001600160a01b0391909116815260200190565b6001600160a01b039384168152919092166020820152604081019190915260600190565b901515815260200190565b931515845260208401929092526040830152606082015260800190565b6001600160e01b031991909116815260200190565b60029190910b815260200190565b6020808252600390820152622722a360e91b604082015260600190565b6020808252600390820152624c504160e81b604082015260600190565b6020808252601a908201527f496e76616c6964206c697175696469747920696e637265617365000000000000604082015260600190565b6020808252600a90820152694e6f742041637469766560b01b604082015260600190565b60208082526014908201527f4661696c656420746f2073656e64204574686572000000000000000000000000604082015260600190565b6020808252600a90820152694e6f742061637469766560b01b604082015260600190565b60208082526003908201526227a72360e91b604082015260600190565b6020808252600d908201526c2737ba103a34329037bbb732b960991b604082015260600190565b6020808252601190820152704c6971756964697479206973207a65726f60781b604082015260600190565b6020808252601a908201527f496e73756666696369656e7420746f6b656e2062616c616e6365000000000000604082015260600190565b60208082526022908201527f5175616e74697479206d7573742062652067726561746572207468616e207a65604082015261726f60f01b606082015260800190565b60208082526019908201527f506f736974696f6e2063616e2774206163636570742045544800000000000000604082015260600190565b6020808252600290820152614e4160f01b604082015260600190565b6020808252601e908201527f4554482073656e7420616e64207175616e74697479206d69736d617463680000604082015260600190565b60208082526024908201527f6e6f742063616c6c65642066726f6d2074686520736574746c657220636f6e746040820152631c9858dd60e21b606082015260800190565b60208082526022908201527f53656e742045544820627574206f7264657220646f65736e2774207265717569604082015261726560f01b606082015260800190565b6020808252600d908201526c496e76616c696420707269636560981b604082015260600190565b6020808252600390820152624e544f60e81b604082015260600190565b815181526020808301516001600160a01b0316908201526040808301516001600160801b0390811691830191909152606092830151169181019190915260800190565b600060a082019050825182526001600160801b03602084015116602083015260408301516040830152606083015160608301526080830151608083015292915050565b600060c082019050825182526020830151602083015260408301516040830152606083015160608301526080830151608083015260a083015160a083015292915050565b600061016082019050613b798284516136cc565b6020830151613b8b60208401826136cc565b506040830151613b9e60408401826136e0565b506060830151613bb160608401826136d9565b506080830151613bc460808401826136d9565b5060a083015160a083015260c083015160c083015260e083015160e083015261010080840151818401525061012080840151613c02828501826136cc565b505061014092830151919092015290565b6001600160801b0391909116815260200190565b62ffffff91909116815260200190565b90815260200190565b93845291151560208401526001600160a01b03166040830152606082015260800190565b918252602082015260400190565b6001600160a01b0381168114613c8757600080fd5b50565b8015158114613c8757600080fdfe5265656e7472616e637947756172643a207265656e7472616e742063616c6c00416464726573733a20696e73756666696369656e742062616c616e636520666f722063616c6c5361666545524332303a204552433230206f7065726174696f6e20646964206e6f742073756363656564a26469706673582212204fe7934b18f5dad2abeeeea4962231cab93b5fdc02c53a2036f31b10d2bc2e6164736f6c63430007060033a2646970667358221220f4c006a74b2e1e2497c23b6eda0764c2ed1d72afd2e45c44ffa99535db3eae2664736f6c63430007060033",
  "immutableReferences": {
    "7493": [
      {
        "length": 32,
        "start": 473
      },
      {
        "length": 32,
        "start": 604
      }
    ],
    "7495": [
      {
        "length": 32,
        "start": 148
      },
      {
        "length": 32,
        "start": 507
      }
    ],
    "7497": [
      {
        "length": 32,
        "start": 184
      },
      {
        "length": 32,
        "start": 223
      }
    ]
  },
  "source": "// SPDX-License-Identifier: MIT\r\npragma solidity 0.7.6;\r\npragma abicoder v2; \r\n\r\nimport './UniV3TradingPair.sol';\r\nimport './interfaces/IUnilimitFactory.sol';\r\n\r\nimport \"@uniswap/v3-core/contracts/interfaces/IUniswapV3Factory.sol\";\r\n\r\ncontract UnilimitFactory is IUnilimitFactory{\r\n\r\n    address public immutable nftManager;\r\n    address public immutable WETH9;\r\n    IUniswapV3Factory public immutable uniswapV3Factory;\r\n\r\n    constructor(\r\n        address _nftManager,\r\n        address _WETH9,\r\n        address _uniswapV3FactoryAddress\r\n    ){\r\n        nftManager = _nftManager;\r\n        WETH9 = _WETH9;\r\n        uniswapV3Factory = IUniswapV3Factory(_uniswapV3FactoryAddress);\r\n    }\r\n\r\n    function deployPair(\r\n        address tokenA,\r\n        address tokenB,\r\n        uint24 fee,\r\n        address settlerAddress\r\n    ) \r\n    external\r\n    override\r\n    returns (\r\n        UniV3TradingPair newPair\r\n    ){\r\n        //compute Uni pool address and check that it's already created exists\r\n        address poolAddress = uniswapV3Factory.getPool(tokenA, tokenB, fee);\r\n        require(poolAddress != address(0), \"No corresponding pool for token & fee combination\");\r\n\r\n        //We assume the settler address exists? or require(msg.sender == settlerAddress) ?\r\n        require(msg.sender == settlerAddress, \"settler needs to be sender\");\r\n        \r\n        //create contract\r\n        newPair = new UniV3TradingPair(\r\n            poolAddress,\r\n            nftManager,\r\n            settlerAddress,\r\n            WETH9\r\n        );\r\n    }\r\n}",
  "sourcePath": "C:\\Users\\LeoDu\\source\\repos\\unilimit\\contracts\\UnilimitFactory.sol",
  "compiler": {
    "name": "solc",
    "version": "0.7.6+commit.7338295f.Emscripten.clang"
  },
  "schemaVersion": "3.4.10",
  "updatedAt": "2023-05-09T15:26:25.990Z",
  "networkType": "ethereum",
  "devdoc": {
    "kind": "dev",
    "methods": {
      "deployPair(address,address,uint24,address)": {
        "params": {
          "fee": "The Uniswap Pool fee in bps * 100",
          "settlerAddress": "The address of the settler entity attached to the pair",
          "tokenA": "The address of the second token of the pair"
        },
        "returns": {
          "newPair": "The newly created pair"
        }
      }
    },
    "version": 1
  },
  "userdoc": {
    "kind": "user",
    "methods": {
      "deployPair(address,address,uint24,address)": {
        "notice": "Deploys a new Unilimit Pair"
      }
    },
    "version": 1
  }
}