{
  "contractName": "UniswapInterface",
  "abi": [
    {
      "inputs": [
        {
          "internalType": "contract INonfungiblePositionManager",
          "name": "_nonfungiblePositionManager",
          "type": "address"
        },
        {
          "internalType": "address",
          "name": "_factory",
          "type": "address"
        },
        {
          "internalType": "address",
          "name": "_WETH9",
          "type": "address"
        }
      ],
      "stateMutability": "nonpayable",
      "type": "constructor"
    },
    {
      "inputs": [],
      "name": "WETH9",
      "outputs": [
        {
          "internalType": "address",
          "name": "",
          "type": "address"
        }
      ],
      "stateMutability": "view",
      "type": "function",
      "constant": true
    },
    {
      "inputs": [],
      "name": "contractOwner",
      "outputs": [
        {
          "internalType": "address",
          "name": "",
          "type": "address"
        }
      ],
      "stateMutability": "view",
      "type": "function",
      "constant": true
    },
    {
      "inputs": [
        {
          "internalType": "uint256",
          "name": "",
          "type": "uint256"
        }
      ],
      "name": "deposits",
      "outputs": [
        {
          "internalType": "address",
          "name": "owner",
          "type": "address"
        },
        {
          "internalType": "uint128",
          "name": "liquidity",
          "type": "uint128"
        },
        {
          "internalType": "address",
          "name": "token0",
          "type": "address"
        },
        {
          "internalType": "address",
          "name": "token1",
          "type": "address"
        }
      ],
      "stateMutability": "view",
      "type": "function",
      "constant": true
    },
    {
      "inputs": [],
      "name": "factory",
      "outputs": [
        {
          "internalType": "address",
          "name": "",
          "type": "address"
        }
      ],
      "stateMutability": "view",
      "type": "function",
      "constant": true
    },
    {
      "inputs": [],
      "name": "nonfungiblePositionManager",
      "outputs": [
        {
          "internalType": "contract INonfungiblePositionManager",
          "name": "",
          "type": "address"
        }
      ],
      "stateMutability": "view",
      "type": "function",
      "constant": true
    },
    {
      "inputs": [
        {
          "internalType": "address",
          "name": "operator",
          "type": "address"
        },
        {
          "internalType": "address",
          "name": "",
          "type": "address"
        },
        {
          "internalType": "uint256",
          "name": "tokenId",
          "type": "uint256"
        },
        {
          "internalType": "bytes",
          "name": "",
          "type": "bytes"
        }
      ],
      "name": "onERC721Received",
      "outputs": [
        {
          "internalType": "bytes4",
          "name": "",
          "type": "bytes4"
        }
      ],
      "stateMutability": "nonpayable",
      "type": "function"
    },
    {
      "inputs": [
        {
          "internalType": "address",
          "name": "token0ToMint",
          "type": "address"
        },
        {
          "internalType": "address",
          "name": "token1ToMint",
          "type": "address"
        },
        {
          "internalType": "uint256",
          "name": "amount0ToMint",
          "type": "uint256"
        },
        {
          "internalType": "uint256",
          "name": "amount1ToMint",
          "type": "uint256"
        },
        {
          "internalType": "int24",
          "name": "tickLower",
          "type": "int24"
        },
        {
          "internalType": "int24",
          "name": "tickUpper",
          "type": "int24"
        }
      ],
      "name": "mintNewPosition",
      "outputs": [
        {
          "internalType": "uint256",
          "name": "tokenId",
          "type": "uint256"
        },
        {
          "internalType": "uint128",
          "name": "liquidity",
          "type": "uint128"
        },
        {
          "internalType": "uint256",
          "name": "amount0",
          "type": "uint256"
        },
        {
          "internalType": "uint256",
          "name": "amount1",
          "type": "uint256"
        }
      ],
      "stateMutability": "nonpayable",
      "type": "function"
    },
    {
      "inputs": [
        {
          "internalType": "uint256",
          "name": "tokenId",
          "type": "uint256"
        }
      ],
      "name": "collectAllFees",
      "outputs": [
        {
          "internalType": "uint256",
          "name": "amount0",
          "type": "uint256"
        },
        {
          "internalType": "uint256",
          "name": "amount1",
          "type": "uint256"
        }
      ],
      "stateMutability": "nonpayable",
      "type": "function"
    },
    {
      "inputs": [
        {
          "internalType": "uint256",
          "name": "tokenId",
          "type": "uint256"
        }
      ],
      "name": "decreaseLiquidityInHalf",
      "outputs": [
        {
          "internalType": "uint256",
          "name": "amount0",
          "type": "uint256"
        },
        {
          "internalType": "uint256",
          "name": "amount1",
          "type": "uint256"
        }
      ],
      "stateMutability": "nonpayable",
      "type": "function"
    },
    {
      "inputs": [
        {
          "internalType": "uint256",
          "name": "tokenId",
          "type": "uint256"
        },
        {
          "internalType": "uint256",
          "name": "amountAdd0",
          "type": "uint256"
        },
        {
          "internalType": "uint256",
          "name": "amountAdd1",
          "type": "uint256"
        }
      ],
      "name": "increaseLiquidityCurrentRange",
      "outputs": [
        {
          "internalType": "uint128",
          "name": "liquidity",
          "type": "uint128"
        },
        {
          "internalType": "uint256",
          "name": "amount0",
          "type": "uint256"
        },
        {
          "internalType": "uint256",
          "name": "amount1",
          "type": "uint256"
        }
      ],
      "stateMutability": "nonpayable",
      "type": "function"
    },
    {
      "inputs": [
        {
          "internalType": "uint256",
          "name": "tokenId",
          "type": "uint256"
        }
      ],
      "name": "retrieveNFT",
      "outputs": [],
      "stateMutability": "nonpayable",
      "type": "function"
    }
  ],
  "bytecode": "0x6101006040523480156200001257600080fd5b506040516200190238038062001902833981016040819052620000359162000065565b6001600160601b0319606092831b811660805290821b811660a05291811b90911660c05233901b60e052620000d1565b6000806000606084860312156200007a578283fd5b83516200008781620000b8565b60208501519093506200009a81620000b8565b6040850151909250620000ad81620000b8565b809150509250925092565b6001600160a01b0381168114620000ce57600080fd5b50565b60805160601c60a05160601c60c05160601c60e05160601c6117bd620001456000398061087152508061025e52806103d3528061050e528061055452806105d6528061072b528061082952806108b752806108e252806109945280610a3752508061047952508061084d52506117bd6000f3fe608060405234801561001057600080fd5b50600436106100c95760003560e01c80638187b4c511610081578063c45a01551161005b578063c45a0155146101a2578063ce606ee0146101aa578063ec4c38bc146101b2576100c9565b80638187b4c514610164578063b02c43d014610177578063b44a27221461019a576100c9565b806346ce96dd116100b257806346ce96dd1461010c5780634aa4a4fc1461012d578063617d6d6e14610142576100c9565b80630a1d7c5f146100ce578063150b7a02146100e3575b600080fd5b6100e16100dc3660046112f2565b6101d5565b005b6100f66100f13660046111b5565b610341565b6040516101039190611504565b60405180910390f35b61011f61011a3660046112f2565b610378565b604051610103929190611752565b610135610477565b604051610103919061148f565b610155610150366004611368565b61049b565b604051610103939291906116f2565b61011f6101723660046112f2565b61066d565b61018a6101853660046112f2565b6107de565b60405161010394939291906114c7565b610135610827565b61013561084b565b61013561086f565b6101c56101c036600461124f565b610893565b6040516101039493929190611725565b6000818152602081905260409020546001600160a01b0316331461022e576040517f08c379a000000000000000000000000000000000000000000000000000000000815260040161022590611531565b60405180910390fd5b6040517f42842e0e0000000000000000000000000000000000000000000000000000000081526001600160a01b037f000000000000000000000000000000000000000000000000000000000000000016906342842e0e90610297903090339086906004016114a3565b600060405180830381600087803b1580156102b157600080fd5b505af11580156102c5573d6000803e3d6000fd5b50505060009182525060208190526040902080547fffffffffffffffffffffffff000000000000000000000000000000000000000090811682556001820180547fffffffffffffffffffffffffffffffff0000000000000000000000000000000016905560028201805482169055600390910180549091169055565b600061034d8685610a30565b507f150b7a020000000000000000000000000000000000000000000000000000000095945050505050565b604080516080810182528281523060208201526fffffffffffffffffffffffffffffffff818301819052606082015290517ffc6f786500000000000000000000000000000000000000000000000000000000815260009182917f00000000000000000000000000000000000000000000000000000000000000006001600160a01b03169063fc6f786590610410908490600401611568565b6040805180830381600087803b15801561042957600080fd5b505af115801561043d573d6000803e3d6000fd5b505050506040513d601f19601f820116820180604052508101906104619190611345565b9093509150610471848484610c11565b50915091565b7f000000000000000000000000000000000000000000000000000000000000000081565b600083815260208190526040812060020154819081906104c6906001600160a01b0316333088610c5a565b6000868152602081905260409020600301546104ed906001600160a01b0316333087610c5a565b600086815260208190526040902060020154610533906001600160a01b03167f000000000000000000000000000000000000000000000000000000000000000087610e0c565b600086815260208190526040902060030154610579906001600160a01b03167f000000000000000000000000000000000000000000000000000000000000000086610e0c565b6040805160c0810182528781526020810187905280820186905260006060820181905260808201524260a082015290517f219f5d170000000000000000000000000000000000000000000000000000000081526001600160a01b037f0000000000000000000000000000000000000000000000000000000000000000169063219f5d179061060b908490600401611600565b606060405180830381600087803b15801561062557600080fd5b505af1158015610639573d6000803e3d6000fd5b505050506040513d601f19601f8201168201806040525081019061065d91906112be565b9199909850909650945050505050565b60008181526020819052604081205481906001600160a01b031633146106bf576040517f08c379a000000000000000000000000000000000000000000000000000000000815260040161022590611531565b6000838152602081905260408120600101546fffffffffffffffffffffffffffffffff169060028204905060006040518060a00160405280878152602001836fffffffffffffffffffffffffffffffff16815260200160008152602001600081526020014281525090507f00000000000000000000000000000000000000000000000000000000000000006001600160a01b0316630c49ccbe826040518263ffffffff1660e01b815260040161077591906115b4565b6040805180830381600087803b15801561078e57600080fd5b505af11580156107a2573d6000803e3d6000fd5b505050506040513d601f19601f820116820180604052508101906107c69190611345565b90955093506107d6868686610c11565b505050915091565b60006020819052908152604090208054600182015460028301546003909301546001600160a01b03928316936fffffffffffffffffffffffffffffffff90921692918216911684565b7f000000000000000000000000000000000000000000000000000000000000000081565b7f000000000000000000000000000000000000000000000000000000000000000081565b7f000000000000000000000000000000000000000000000000000000000000000081565b6000806000806108a58a33308b610c5a565b6108b18933308a610c5a565b6108dc8a7f00000000000000000000000000000000000000000000000000000000000000008a610e0c565b610907897f000000000000000000000000000000000000000000000000000000000000000089610e0c565b60408051610160810182526001600160a01b03808d1682528b81166020830152610bb882840152600289810b606084015288900b608083015260a082018b905260c082018a9052600060e08301819052610100830152306101208301524261014083015291517f8831645600000000000000000000000000000000000000000000000000000000815290917f000000000000000000000000000000000000000000000000000000000000000016906388316456906109c9908490600401611644565b608060405180830381600087803b1580156109e357600080fd5b505af11580156109f7573d6000803e3d6000fd5b505050506040513d601f19601f82011682018060405250810190610a1b919061130a565b929e919d509b50909950975050505050505050565b60008060007f00000000000000000000000000000000000000000000000000000000000000006001600160a01b03166399fbab88856040518263ffffffff1660e01b8152600401610a81919061171c565b6101806040518083038186803b158015610a9a57600080fd5b505afa158015610aae573d6000803e3d6000fd5b505050506040513d601f19601f82011682018060405250810190610ad29190611393565b5050505097505050509450945050506040518060800160405280866001600160a01b03168152602001826fffffffffffffffffffffffffffffffff168152602001846001600160a01b03168152602001836001600160a01b031681525060008086815260200190815260200160002060008201518160000160006101000a8154816001600160a01b0302191690836001600160a01b0316021790555060208201518160010160006101000a8154816fffffffffffffffffffffffffffffffff02191690836fffffffffffffffffffffffffffffffff16021790555060408201518160020160006101000a8154816001600160a01b0302191690836001600160a01b0316021790555060608201518160030160006101000a8154816001600160a01b0302191690836001600160a01b031602179055509050505050505050565b6000838152602081905260409020805460028201546003909201546001600160a01b039182169282169116610c47828487610fbd565b610c52818486610fbd565b505050505050565b604080516001600160a01b0385811660248301528481166044830152606480830185905283518084039091018152608490920183526020820180517bffffffffffffffffffffffffffffffffffffffffffffffffffffffff167f23b872dd00000000000000000000000000000000000000000000000000000000178152925182516000948594938a169392918291908083835b60208310610d0c5780518252601f199092019160209182019101610ced565b6001836020036101000a0380198251168184511680821785525050505050509050019150506000604051808303816000865af19150503d8060008114610d6e576040519150601f19603f3d011682016040523d82523d6000602084013e610d73565b606091505b5091509150818015610da1575080511580610da15750808060200190516020811015610d9e57600080fd5b50515b610c5257604080517f08c379a000000000000000000000000000000000000000000000000000000000815260206004820152600360248201527f5354460000000000000000000000000000000000000000000000000000000000604482015290519081900360640190fd5b604080516001600160a01b038481166024830152604480830185905283518084039091018152606490920183526020820180517bffffffffffffffffffffffffffffffffffffffffffffffffffffffff167f095ea7b3000000000000000000000000000000000000000000000000000000001781529251825160009485949389169392918291908083835b60208310610eb65780518252601f199092019160209182019101610e97565b6001836020036101000a0380198251168184511680821785525050505050509050019150506000604051808303816000865af19150503d8060008114610f18576040519150601f19603f3d011682016040523d82523d6000602084013e610f1d565b606091505b5091509150818015610f4b575080511580610f4b5750808060200190516020811015610f4857600080fd5b50515b610fb657604080517f08c379a000000000000000000000000000000000000000000000000000000000815260206004820152600260248201527f5341000000000000000000000000000000000000000000000000000000000000604482015290519081900360640190fd5b5050505050565b604080516001600160a01b038481166024830152604480830185905283518084039091018152606490920183526020820180517bffffffffffffffffffffffffffffffffffffffffffffffffffffffff167fa9059cbb000000000000000000000000000000000000000000000000000000001781529251825160009485949389169392918291908083835b602083106110675780518252601f199092019160209182019101611048565b6001836020036101000a0380198251168184511680821785525050505050509050019150506000604051808303816000865af19150503d80600081146110c9576040519150601f19603f3d011682016040523d82523d6000602084013e6110ce565b606091505b50915091508180156110fc5750805115806110fc57508080602001905160208110156110f957600080fd5b50515b610fb657604080517f08c379a000000000000000000000000000000000000000000000000000000000815260206004820152600260248201527f5354000000000000000000000000000000000000000000000000000000000000604482015290519081900360640190fd5b805161117281611760565b919050565b805161117281611778565b80516fffffffffffffffffffffffffffffffff8116811461117257600080fd5b805162ffffff8116811461117257600080fd5b6000806000806000608086880312156111cc578081fd5b85356111d781611760565b945060208601356111e781611760565b935060408601359250606086013567ffffffffffffffff8082111561120a578283fd5b818801915088601f83011261121d578283fd5b81358181111561122b578384fd5b89602082850101111561123c578384fd5b9699959850939650602001949392505050565b60008060008060008060c08789031215611267578081fd5b863561127281611760565b9550602087013561128281611760565b9450604087013593506060870135925060808701356112a081611778565b915060a08701356112b081611778565b809150509295509295509295565b6000806000606084860312156112d2578283fd5b6112db84611182565b925060208401519150604084015190509250925092565b600060208284031215611303578081fd5b5035919050565b6000806000806080858703121561131f578384fd5b8451935061132f60208601611182565b6040860151606090960151949790965092505050565b60008060408385031215611357578182fd5b505080516020909101519092909150565b60008060006060848603121561137c578283fd5b505081359360208301359350604090920135919050565b6000806000806000806000806000806000806101808d8f0312156113b5578586fd5b8c516bffffffffffffffffffffffff811681146113d0578687fd5b9b506113de60208e01611167565b9a506113ec60408e01611167565b99506113fa60608e01611167565b985061140860808e016111a2565b975061141660a08e01611177565b965061142460c08e01611177565b955061143260e08e01611182565b94506101008d015193506101208d015192506114516101408e01611182565b91506114606101608e01611182565b90509295989b509295989b509295989b565b6001600160a01b03169052565b60020b9052565b62ffffff169052565b6001600160a01b0391909116815260200190565b6001600160a01b039384168152919092166020820152604081019190915260600190565b6001600160a01b0394851681526fffffffffffffffffffffffffffffffff9390931660208401529083166040830152909116606082015260800190565b7fffffffff0000000000000000000000000000000000000000000000000000000091909116815260200190565b6020808252600d908201527f4e6f7420746865206f776e657200000000000000000000000000000000000000604082015260600190565b815181526020808301516001600160a01b0316908201526040808301516fffffffffffffffffffffffffffffffff90811691830191909152606092830151169181019190915260800190565b600060a082019050825182526fffffffffffffffffffffffffffffffff602084015116602083015260408301516040830152606083015160608301526080830151608083015292915050565b600060c082019050825182526020830151602083015260408301516040830152606083015160608301526080830151608083015260a083015160a083015292915050565b600061016082019050611658828451611472565b602083015161166a6020840182611472565b50604083015161167d6040840182611486565b506060830151611690606084018261147f565b5060808301516116a3608084018261147f565b5060a083015160a083015260c083015160c083015260e083015160e0830152610100808401518184015250610120808401516116e182850182611472565b505061014092830151919092015290565b6fffffffffffffffffffffffffffffffff9390931683526020830191909152604082015260600190565b90815260200190565b9384526fffffffffffffffffffffffffffffffff9290921660208401526040830152606082015260800190565b918252602082015260400190565b6001600160a01b038116811461177557600080fd5b50565b8060020b811461177557600080fdfea2646970667358221220bf4f7afb3aade0bc59343dadfbcc76fbc874b562a46d66c9adf72bf90b39b02c64736f6c63430007060033",
  "immutableReferences": {
    "2768": [
      {
        "length": 32,
        "start": 2125
      }
    ],
    "2772": [
      {
        "length": 32,
        "start": 1145
      }
    ],
    "4267": [
      {
        "length": 32,
        "start": 606
      },
      {
        "length": 32,
        "start": 979
      },
      {
        "length": 32,
        "start": 1294
      },
      {
        "length": 32,
        "start": 1364
      },
      {
        "length": 32,
        "start": 1494
      },
      {
        "length": 32,
        "start": 1835
      },
      {
        "length": 32,
        "start": 2089
      },
      {
        "length": 32,
        "start": 2231
      },
      {
        "length": 32,
        "start": 2274
      },
      {
        "length": 32,
        "start": 2452
      },
      {
        "length": 32,
        "start": 2615
      }
    ],
    "4269": [
      {
        "length": 32,
        "start": 2161
      }
    ]
  },
  "source": "// SPDX-License-Identifier: GPL-2.0-or-later\npragma solidity =0.7.6;\npragma abicoder v2;\n\nimport '@uniswap/v3-core/contracts/interfaces/IUniswapV3Pool.sol';\nimport '@uniswap/v3-core/contracts/libraries/TickMath.sol';\nimport '@openzeppelin/contracts/token/ERC721/IERC721Receiver.sol';\n//import '@uniswap/v3-periphery/contracts/interfaces/ISwapRouter.sol';\nimport '@uniswap/v3-periphery/contracts/interfaces/INonfungiblePositionManager.sol';\nimport '@uniswap/v3-periphery/contracts/libraries/TransferHelper.sol';\nimport '@uniswap/v3-periphery/contracts/base/LiquidityManagement.sol';\nimport '@uniswap/v3-periphery/contracts/base/PeripheryImmutableState.sol';\nimport '@uniswap/v3-periphery/contracts/interfaces/IPeripheryImmutableState.sol';\n\ncontract UniswapInterface is IERC721Receiver, PeripheryImmutableState {\n    \n    //address private constant _WETH9 = 0xC02aaA39b223FE8D0A0e5C4F27eAD9083C756Cc2;\n    //address private immutable v3FactoryAddress = 0x1F98431c8aD98523631AE4a59f267346ea31F984;\n    //address private constant nftManager = 0xC36442b4a4522E871399CD717aBDD847Ab11FE88;\n\n    uint24 private constant poolFee = 3000;\n\n    INonfungiblePositionManager public immutable nonfungiblePositionManager;\n\n    address public immutable contractOwner; \n\n    /// @notice Represents the deposit of an NFT\n    struct Deposit {\n        address owner;\n        uint128 liquidity;\n        address token0;\n        address token1;\n    }\n\n    \n\n    constructor(\n        INonfungiblePositionManager _nonfungiblePositionManager,\n        address _factory,\n        address _WETH9\n    ) PeripheryImmutableState(_factory, _WETH9) {\n        nonfungiblePositionManager = _nonfungiblePositionManager;\n        contractOwner = msg.sender;\n    }\n\n    /// @dev deposits[tokenId] => Deposit\n    mapping(uint256 => Deposit) public deposits;\n\n    /*constructor(\n        //INonfungiblePositionManager _nonfungiblePositionManager\n    ) {\n        //nonfungiblePositionManager = _nonfungiblePositionManager;\n        nonfungiblePositionManager = INonfungiblePositionManager(nftManager);\n        contractOwner = msg.sender;\n    }\n    */\n\n    // Modifier to check that the caller is the owner of\n    // the contract.\n    /*modifier onlyOwner() {\n        require(msg.sender == contractOwner, \"Not owner\");\n        _;\n    }\n    */\n\n    // Implementing `onERC721Received` so this contract can receive custody of erc721 tokens\n    function onERC721Received(\n        address operator,\n        address,\n        uint256 tokenId,\n        bytes calldata\n    ) external override returns (bytes4) {\n        // get position information\n\n        _createDeposit(operator, tokenId);\n\n        return this.onERC721Received.selector;\n    }\n\n\n    function _createDeposit(address owner, uint256 tokenId) internal {\n        (, , address token0, address token1, , , , uint128 liquidity, , , , ) =\n            nonfungiblePositionManager.positions(tokenId);\n\n        // set the owner and data for position\n        // operator is msg.sender\n        deposits[tokenId] = Deposit({owner: owner, liquidity: liquidity, token0: token0, token1: token1});\n    }\n\n    /// @notice Calls the mint function defined in periphery, mints the same amount of each token.\n    /// For this example we are providing 1000 DAI and 1000 USDC in liquidity\n    /// @return tokenId The id of the newly minted ERC721\n    /// @return liquidity The amount of liquidity for the position\n    /// @return amount0 The amount of token0\n    /// @return amount1 The amount of token1\n    function mintNewPosition(\n        address token0ToMint,\n        address token1ToMint,\n        uint256 amount0ToMint,\n        uint256 amount1ToMint,\n        int24 tickLower,\n        int24 tickUpper\n\n    )\n        external\n        returns (\n            uint256 tokenId,\n            uint128 liquidity,\n            uint256 amount0,\n            uint256 amount1\n        )\n    {\n        // transfer tokens to contract\n        TransferHelper.safeTransferFrom(token0ToMint, msg.sender, address(this), amount0ToMint);\n        TransferHelper.safeTransferFrom(token1ToMint, msg.sender, address(this), amount1ToMint);\n\n        // Approve the position manager\n        TransferHelper.safeApprove(token0ToMint, address(nonfungiblePositionManager), amount0ToMint);\n        TransferHelper.safeApprove(token1ToMint, address(nonfungiblePositionManager), amount1ToMint);\n\n        INonfungiblePositionManager.MintParams memory params =\n            INonfungiblePositionManager.MintParams({\n                token0: token0ToMint,\n                token1: token1ToMint,\n                fee: poolFee,\n                tickLower: tickLower,\n                tickUpper: tickUpper,\n                amount0Desired: amount0ToMint,\n                amount1Desired: amount1ToMint,\n                amount0Min: 0,\n                amount1Min: 0,\n                recipient: address(this),\n                deadline: block.timestamp\n            });\n\n\n        (tokenId, liquidity, amount0, amount1) = nonfungiblePositionManager.mint(params);\n\n        /*\n        // Create a deposit\n        _createDeposit(msg.sender, tokenId);\n\n        // Remove allowance and refund in both assets.\n        if (amount0 < amount0ToMint) {\n            TransferHelper.safeApprove(token0ToMint, address(nonfungiblePositionManager), 0);\n            uint256 refund0 = amount0ToMint - amount0;\n            TransferHelper.safeTransfer(token0ToMint, msg.sender, refund0);\n        }\n\n        if (amount1 < amount1ToMint) {\n            TransferHelper.safeApprove(token1ToMint, address(nonfungiblePositionManager), 0);\n            uint256 refund1 = amount1ToMint - amount1;\n            TransferHelper.safeTransfer(token1ToMint, msg.sender, refund1);\n        }*/\n    }\n\n    /// @notice Collects the fees associated with provided liquidity\n    /// @dev The contract must hold the erc721 token before it can collect fees\n    /// @param tokenId The id of the erc721 token\n    /// @return amount0 The amount of fees collected in token0\n    /// @return amount1 The amount of fees collected in token1\n    function collectAllFees(uint256 tokenId) external returns (uint256 amount0, uint256 amount1) {\n        // Caller must own the ERC721 position, meaning it must be a deposit\n\n        // set amount0Max and amount1Max to uint256.max to collect all fees\n        // alternatively can set recipient to msg.sender and avoid another transaction in `sendToOwner`\n        INonfungiblePositionManager.CollectParams memory params =\n            INonfungiblePositionManager.CollectParams({\n                tokenId: tokenId,\n                recipient: address(this),\n                amount0Max: type(uint128).max,\n                amount1Max: type(uint128).max\n            });\n\n        (amount0, amount1) = nonfungiblePositionManager.collect(params);\n\n        // send collected feed back to owner\n        _sendToOwner(tokenId, amount0, amount1);\n    }\n\n    /// @notice A function that decreases the current liquidity by half. An example to show how to call the `decreaseLiquidity` function defined in periphery.\n    /// @param tokenId The id of the erc721 token\n    /// @return amount0 The amount received back in token0\n    /// @return amount1 The amount returned back in token1\n    function decreaseLiquidityInHalf(uint256 tokenId) external returns (uint256 amount0, uint256 amount1) {\n        // caller must be the owner of the NFT\n        require(msg.sender == deposits[tokenId].owner, 'Not the owner');\n        // get liquidity data for tokenId\n        uint128 liquidity = deposits[tokenId].liquidity;\n        uint128 halfLiquidity = liquidity / 2;\n\n        // amount0Min and amount1Min are price slippage checks\n        // if the amount received after burning is not greater than these minimums, transaction will fail\n        INonfungiblePositionManager.DecreaseLiquidityParams memory params =\n            INonfungiblePositionManager.DecreaseLiquidityParams({\n                tokenId: tokenId,\n                liquidity: halfLiquidity,\n                amount0Min: 0,\n                amount1Min: 0,\n                deadline: block.timestamp\n            });\n\n        (amount0, amount1) = nonfungiblePositionManager.decreaseLiquidity(params);\n\n        //send liquidity back to owner\n        _sendToOwner(tokenId, amount0, amount1);\n    }\n\n    /// @notice Increases liquidity in the current range\n    /// @dev Pool must be initialized already to add liquidity\n    /// @param tokenId The id of the erc721 token\n    /// @param amount0 The amount to add of token0\n    /// @param amount1 The amount to add of token1\n    function increaseLiquidityCurrentRange(\n        uint256 tokenId,\n        uint256 amountAdd0,\n        uint256 amountAdd1\n    )\n        external\n        returns (\n            uint128 liquidity,\n            uint256 amount0,\n            uint256 amount1\n        ) {\n\n        TransferHelper.safeTransferFrom(deposits[tokenId].token0, msg.sender, address(this), amountAdd0);\n        TransferHelper.safeTransferFrom(deposits[tokenId].token1, msg.sender, address(this), amountAdd1);\n\n        TransferHelper.safeApprove(deposits[tokenId].token0, address(nonfungiblePositionManager), amountAdd0);\n        TransferHelper.safeApprove(deposits[tokenId].token1, address(nonfungiblePositionManager), amountAdd1);\n\n        INonfungiblePositionManager.IncreaseLiquidityParams memory params = INonfungiblePositionManager.IncreaseLiquidityParams({\n            tokenId: tokenId,\n            amount0Desired: amountAdd0,\n            amount1Desired: amountAdd1,\n            amount0Min: 0,\n            amount1Min: 0,\n            deadline: block.timestamp\n        });\n\n        (liquidity, amount0, amount1) = nonfungiblePositionManager.increaseLiquidity(params);\n\n    }\n\n    /// @notice Transfers funds to owner of NFT\n    /// @param tokenId The id of the erc721\n    /// @param amount0 The amount of token0\n    /// @param amount1 The amount of token1\n    function _sendToOwner(\n        uint256 tokenId,\n        uint256 amount0,\n        uint256 amount1\n    ) internal {\n        // get owner of contract\n        address owner = deposits[tokenId].owner;\n\n        address token0 = deposits[tokenId].token0;\n        address token1 = deposits[tokenId].token1;\n        // send collected fees to owner\n        TransferHelper.safeTransfer(token0, owner, amount0);\n        TransferHelper.safeTransfer(token1, owner, amount1);\n    }\n\n    /// @notice Transfers the NFT to the owner\n    /// @param tokenId The id of the erc721\n    function retrieveNFT(uint256 tokenId) external {\n        // must be the owner of the NFT\n        require(msg.sender == deposits[tokenId].owner, 'Not the owner');\n        // transfer ownership to original owner\n        nonfungiblePositionManager.safeTransferFrom(address(this), msg.sender, tokenId);\n        //remove information related to tokenId\n        delete deposits[tokenId];\n    }\n}",
  "sourcePath": "C:\\Users\\LeoDu\\Documents\\UniLimit\\contracts\\UniswapInterface.sol",
  "compiler": {
    "name": "solc",
    "version": "0.7.6+commit.7338295f.Emscripten.clang"
  },
  "schemaVersion": "3.4.10",
  "updatedAt": "2022-11-17T10:08:32.815Z",
  "networkType": "ethereum",
  "devdoc": {
    "kind": "dev",
    "methods": {
      "collectAllFees(uint256)": {
        "details": "The contract must hold the erc721 token before it can collect fees",
        "params": {
          "tokenId": "The id of the erc721 token"
        },
        "returns": {
          "amount0": "The amount of fees collected in token0",
          "amount1": "The amount of fees collected in token1"
        }
      },
      "decreaseLiquidityInHalf(uint256)": {
        "params": {
          "tokenId": "The id of the erc721 token"
        },
        "returns": {
          "amount0": "The amount received back in token0",
          "amount1": "The amount returned back in token1"
        }
      },
      "increaseLiquidityCurrentRange(uint256,uint256,uint256)": {
        "details": "Pool must be initialized already to add liquidity",
        "params": {
          "amount0": "The amount to add of token0",
          "amount1": "The amount to add of token1",
          "tokenId": "The id of the erc721 token"
        }
      },
      "mintNewPosition(address,address,uint256,uint256,int24,int24)": {
        "returns": {
          "amount0": "The amount of token0",
          "amount1": "The amount of token1",
          "liquidity": "The amount of liquidity for the position",
          "tokenId": "The id of the newly minted ERC721"
        }
      },
      "retrieveNFT(uint256)": {
        "params": {
          "tokenId": "The id of the erc721"
        }
      }
    },
    "stateVariables": {
      "deposits": {
        "details": "deposits[tokenId] => Deposit"
      }
    },
    "version": 1
  },
  "userdoc": {
    "kind": "user",
    "methods": {
      "collectAllFees(uint256)": {
        "notice": "Collects the fees associated with provided liquidity"
      },
      "decreaseLiquidityInHalf(uint256)": {
        "notice": "A function that decreases the current liquidity by half. An example to show how to call the `decreaseLiquidity` function defined in periphery."
      },
      "increaseLiquidityCurrentRange(uint256,uint256,uint256)": {
        "notice": "Increases liquidity in the current range"
      },
      "mintNewPosition(address,address,uint256,uint256,int24,int24)": {
        "notice": "Calls the mint function defined in periphery, mints the same amount of each token. For this example we are providing 1000 DAI and 1000 USDC in liquidity"
      },
      "retrieveNFT(uint256)": {
        "notice": "Transfers the NFT to the owner"
      }
    },
    "version": 1
  }
}